{
  "address": "0xdC2c3A4432e0ce69C7579aC62704Bba5D155566A",
  "abi": [
    {
      "inputs": [
        {
          "internalType": "contract IERC20",
          "name": "_footballCoin",
          "type": "address"
        },
        {
          "internalType": "uint256",
          "name": "_timelockBlocks",
          "type": "uint256"
        }
      ],
      "stateMutability": "nonpayable",
      "type": "constructor"
    },
    {
      "anonymous": false,
      "inputs": [
        {
          "indexed": false,
          "internalType": "uint256",
          "name": "gameId",
          "type": "uint256"
        },
        {
          "indexed": true,
          "internalType": "address",
          "name": "opponent",
          "type": "address"
        },
        {
          "indexed": false,
          "internalType": "uint256",
          "name": "wagerAmount",
          "type": "uint256"
        }
      ],
      "name": "GameAccepted",
      "type": "event"
    },
    {
      "anonymous": false,
      "inputs": [
        {
          "indexed": false,
          "internalType": "uint256",
          "name": "gameId",
          "type": "uint256"
        }
      ],
      "name": "GameFinished",
      "type": "event"
    },
    {
      "anonymous": false,
      "inputs": [
        {
          "indexed": false,
          "internalType": "uint256",
          "name": "gameId",
          "type": "uint256"
        }
      ],
      "name": "GameFinishedByTimelock",
      "type": "event"
    },
    {
      "anonymous": false,
      "inputs": [
        {
          "indexed": false,
          "internalType": "uint256",
          "name": "gameId",
          "type": "uint256"
        },
        {
          "indexed": true,
          "internalType": "address",
          "name": "challenger",
          "type": "address"
        },
        {
          "indexed": true,
          "internalType": "address",
          "name": "opponent",
          "type": "address"
        },
        {
          "indexed": false,
          "internalType": "uint256",
          "name": "wagerAmount",
          "type": "uint256"
        }
      ],
      "name": "GameProposed",
      "type": "event"
    },
    {
      "inputs": [
        {
          "internalType": "uint256",
          "name": "gameId",
          "type": "uint256"
        },
        {
          "internalType": "uint256[]",
          "name": "formation",
          "type": "uint256[]"
        }
      ],
      "name": "acceptGame",
      "outputs": [],
      "stateMutability": "nonpayable",
      "type": "function"
    },
    {
      "inputs": [
        {
          "internalType": "uint256",
          "name": "playerId",
          "type": "uint256"
        },
        {
          "internalType": "uint256",
          "name": "teamId",
          "type": "uint256"
        },
        {
          "internalType": "uint256",
          "name": "position",
          "type": "uint256"
        },
        {
          "internalType": "uint128",
          "name": "attack",
          "type": "uint128"
        },
        {
          "internalType": "uint128",
          "name": "defense",
          "type": "uint128"
        },
        {
          "internalType": "uint128",
          "name": "speed",
          "type": "uint128"
        },
        {
          "internalType": "uint128",
          "name": "power",
          "type": "uint128"
        },
        {
          "internalType": "uint128",
          "name": "stamina",
          "type": "uint128"
        },
        {
          "internalType": "uint128",
          "name": "technique",
          "type": "uint128"
        },
        {
          "internalType": "uint128",
          "name": "goalkeeping",
          "type": "uint128"
        }
      ],
      "name": "addPlayer",
      "outputs": [],
      "stateMutability": "nonpayable",
      "type": "function"
    },
    {
      "inputs": [
        {
          "internalType": "uint256",
          "name": "numberOfValues",
          "type": "uint256"
        },
        {
          "internalType": "bytes32",
          "name": "prevRandao",
          "type": "bytes32"
        }
      ],
      "name": "extractRandomValues",
      "outputs": [
        {
          "internalType": "uint256[]",
          "name": "",
          "type": "uint256[]"
        }
      ],
      "stateMutability": "pure",
      "type": "function"
    },
    {
      "inputs": [],
      "name": "footballCoin",
      "outputs": [
        {
          "internalType": "contract IERC20",
          "name": "",
          "type": "address"
        }
      ],
      "stateMutability": "view",
      "type": "function"
    },
    {
      "inputs": [],
      "name": "gameCount",
      "outputs": [
        {
          "internalType": "uint256",
          "name": "",
          "type": "uint256"
        }
      ],
      "stateMutability": "view",
      "type": "function"
    },
    {
      "inputs": [
        {
          "internalType": "uint256",
          "name": "",
          "type": "uint256"
        }
      ],
      "name": "gameResults",
      "outputs": [
        {
          "internalType": "uint256",
          "name": "goalsHomeTeam",
          "type": "uint256"
        },
        {
          "internalType": "uint256",
          "name": "goalsAwayTeam",
          "type": "uint256"
        }
      ],
      "stateMutability": "view",
      "type": "function"
    },
    {
      "inputs": [
        {
          "internalType": "uint256",
          "name": "",
          "type": "uint256"
        }
      ],
      "name": "games",
      "outputs": [
        {
          "internalType": "address",
          "name": "challenger",
          "type": "address"
        },
        {
          "internalType": "address",
          "name": "opponent",
          "type": "address"
        },
        {
          "internalType": "uint256",
          "name": "wagerAmount",
          "type": "uint256"
        },
        {
          "internalType": "bool",
          "name": "isFinished",
          "type": "bool"
        },
        {
          "components": [
            {
              "internalType": "uint256",
              "name": "goalsHomeTeam",
              "type": "uint256"
            },
            {
              "internalType": "uint256",
              "name": "goalsAwayTeam",
              "type": "uint256"
            }
          ],
          "internalType": "struct FootballGame.GameResult",
          "name": "result",
          "type": "tuple"
        },
        {
          "internalType": "uint256",
          "name": "blockNumber",
          "type": "uint256"
        }
      ],
      "stateMutability": "view",
      "type": "function"
    },
    {
      "inputs": [
        {
          "internalType": "uint256",
          "name": "gameId",
          "type": "uint256"
        }
      ],
      "name": "opponentClaimTimelock",
      "outputs": [],
      "stateMutability": "nonpayable",
      "type": "function"
    },
    {
      "inputs": [],
      "name": "owner",
      "outputs": [
        {
          "internalType": "address",
          "name": "",
          "type": "address"
        }
      ],
      "stateMutability": "view",
      "type": "function"
    },
    {
      "inputs": [
        {
          "internalType": "uint256",
          "name": "",
          "type": "uint256"
        }
      ],
      "name": "players",
      "outputs": [
        {
          "internalType": "uint256",
          "name": "player_id",
          "type": "uint256"
        },
        {
          "internalType": "uint256",
          "name": "team_id",
          "type": "uint256"
        },
        {
          "internalType": "uint256",
          "name": "position",
          "type": "uint256"
        },
        {
          "internalType": "uint128",
          "name": "attack",
          "type": "uint128"
        },
        {
          "internalType": "uint128",
          "name": "defense",
          "type": "uint128"
        },
        {
          "internalType": "uint128",
          "name": "speed",
          "type": "uint128"
        },
        {
          "internalType": "uint128",
          "name": "power",
          "type": "uint128"
        },
        {
          "internalType": "uint128",
          "name": "stamina",
          "type": "uint128"
        },
        {
          "internalType": "uint128",
          "name": "technique",
          "type": "uint128"
        },
        {
          "internalType": "uint128",
          "name": "goalkeeping",
          "type": "uint128"
        }
      ],
      "stateMutability": "view",
      "type": "function"
    },
    {
      "inputs": [
        {
          "internalType": "address",
          "name": "opponent",
          "type": "address"
        },
        {
          "internalType": "uint256",
          "name": "wagerAmount",
          "type": "uint256"
        },
        {
          "internalType": "uint256[]",
          "name": "formation",
          "type": "uint256[]"
        }
      ],
      "name": "proposeGame",
      "outputs": [],
      "stateMutability": "nonpayable",
      "type": "function"
    },
    {
      "inputs": [
        {
          "internalType": "uint256",
          "name": "gameId",
          "type": "uint256"
        }
      ],
      "name": "revealOutcome",
      "outputs": [],
      "stateMutability": "nonpayable",
      "type": "function"
    },
    {
      "inputs": [],
      "name": "timelockBlocks",
      "outputs": [
        {
          "internalType": "uint256",
          "name": "",
          "type": "uint256"
        }
      ],
      "stateMutability": "view",
      "type": "function"
    }
  ],
  "transactionHash": "0x67028d5f703f7badb9f3183e4fb646647a75f3f8ec8ea9c13094c81526d6ec64",
  "args": [
    "0xc314278217Ae8D99D95BdAb3432e174A1a483Ed1",
    100
  ],
  "numDeployments": 5,
  "solcInputHash": "4a3ede5ed5c856a0fa546f555235ab9f",
  "bytecode": "0x608060405234801561001057600080fd5b50604051611a27380380611a2783398101604081905261002f91610066565b60008054336001600160a01b031991821617909155600180549091166001600160a01b0393909316929092179091556002556100a0565b6000806040838503121561007957600080fd5b82516001600160a01b038116811461009057600080fd5b6020939093015192949293505050565b611978806100af6000396000f3fe608060405234801561001057600080fd5b50600436106100cf5760003560e01c80638da5cb5b1161008c578063cfb9479811610066578063cfb9479814610251578063f71d96cb14610264578063fda0f9a214610334578063fdba1b7c1461033d57600080fd5b80638da5cb5b1461021857806394b1e5951461022b578063cd86f8101461023e57600080fd5b8063117a5b90146100d45780634d1975b41461018e578063506d7e2d146101a557806352bab1c9146101ba57806359c892a9146101da57806364407bad146101ed575b600080fd5b61013e6100e236600461157c565b60046020908152600091825260409182902080546001820154600283015460058401548651808801909752600685015487526007850154958701959095526008909301546001600160a01b0392831695919092169360ff169186565b604080516001600160a01b0397881681529690951660208088019190915294860193909352901515606085015280516080850152919091015160a083015260c082015260e0015b60405180910390f35b61019760065481565b604051908152602001610185565b6101b86101b33660046115b1565b610379565b005b6101cd6101c8366004611656565b6104c9565b6040516101859190611678565b6101b86101e836600461176d565b6105d2565b600154610200906001600160a01b031681565b6040516001600160a01b039091168152602001610185565b600054610200906001600160a01b031681565b6101b861023936600461157c565b61088a565b6101b861024c3660046117b4565b6109f5565b6101b861025f36600461157c565b610da8565b6102d761027236600461157c565b60076020526000908152604090208054600182015460028301546003840154600485015460058601546006909601549495939492936001600160801b0380841694600160801b948590048216948483169481900483169380841693919004811691168a565b604080519a8b5260208b0199909952978901969096526001600160801b039485166060890152928416608088015290831660a0870152821660c0860152811660e08501529081166101008401521661012082015261014001610185565b61019760025481565b61036461034b36600461157c565b6005602052600090815260409020805460019091015482565b60408051928352602083019190915201610185565b6000546001600160a01b031633146103d85760405162461bcd60e51b815260206004820152601760248201527f43616c6c6572206973206e6f7420746865206f776e657200000000000000000060448201526064015b60405180910390fd5b60408051610140810182528b815260208082019b8c528183019a8b526001600160801b03998a1660608301908152988a1660808301908152978a1660a08301908152968a1660c08301908152958a1660e08301908152948a166101008301908152938a16610120830190815260009d8e52600790915291909b209a518b55985160018b0155965160028a015593519251928516600160801b938616840217600389015590519051908416908416820217600487015590519251928216928216029190911760058401559051600690920180546fffffffffffffffffffffffffffffffff191692909116919091179055565b60606000831161052b5760405162461bcd60e51b815260206004820152602760248201527f4e756d626572206f662076616c756573206d75737420626520677265617465726044820152660207468616e20360cc1b60648201526084016103cf565b60008367ffffffffffffffff811115610546576105466116bc565b60405190808252806020026020018201604052801561056f578160200160208202803683370190505b5090508260005b858110156105c65761058960648361182f565b83828151811061059b5761059b611843565b60209081029190910101526105b26101008361186f565b9150806105be81611883565b915050610576565b50909150505b92915050565b600082815260046020526040902060018101546001600160a01b0316331461064a5760405162461bcd60e51b815260206004820152602560248201527f4f6e6c7920746865206f70706f6e656e742063616e20616363657074207468656044820152642067616d6560d81b60648201526084016103cf565b6002810154600154604051636eb1769f60e11b81523360048201523060248201526001600160a01b039091169063dd62ed3e90604401602060405180830381865afa15801561069d573d6000803e3d6000fd5b505050506040513d601f19601f820116820180604052508101906106c1919061189c565b101561070f5760405162461bcd60e51b815260206004820181905260248201527f496e73756666696369656e7420616c6c6f77616e636520666f7220776167657260448201526064016103cf565b60005b82518110156107a0576007600084838151811061073157610731611843565b602002602001015181526020019081526020016000206000015460000361078e5760405162461bcd60e51b8152602060048201526011602482015270125b9d985b1a59081c1b185e595c881a59607a1b60448201526064016103cf565b8061079881611883565b915050610712565b5060015460028201546040516323b872dd60e01b815233600482015230602482015260448101919091526001600160a01b03909116906323b872dd906064016020604051808303816000875af11580156107fe573d6000803e3d6000fd5b505050506040513d601f19601f8201168201806040525081019061082291906118b5565b50815161083890600483019060208501906114dc565b50436008820155600281015460405133917fc12989f4ffb898af45d9bec31ea6e4b22af6acc72ca98399ca9a866e72c954f89161087d91878252602082015260400190565b60405180910390a2505050565b600081815260046020526040902060018101546001600160a01b031633146109055760405162461bcd60e51b815260206004820152602860248201527f4f6e6c7920746865206f70706f6e656e742063616e20636c61696d207468652060448201526774696d656c6f636b60c01b60648201526084016103cf565b600254816008015461091791906118de565b43116109955760405162461bcd60e51b815260206004820152604160248201527f4f70706f6e656e742063616e20636c61696d2074696d656c6f636b206f6e6c7960448201527f2061667465722074696d656c6f636b426c6f636b7320686176652070617373656064820152601960fa1b608482015260a4016103cf565b60058101805460ff191660019081179091558101546109be9082906001600160a01b0316610f21565b6040518281527f3940a261f19a11e745a180d85bc64bb8a1360ea9d291fff0bce0d67cc4261f949060200160405180910390a15050565b600154604051636eb1769f60e11b815233600482015230602482015283916001600160a01b03169063dd62ed3e90604401602060405180830381865afa158015610a43573d6000803e3d6000fd5b505050506040513d601f19601f82011682018060405250810190610a67919061189c565b1015610ab55760405162461bcd60e51b815260206004820181905260248201527f496e73756666696369656e7420616c6c6f77616e636520666f7220776167657260448201526064016103cf565b60005b8151811015610b465760076000838381518110610ad757610ad7611843565b6020026020010151815260200190815260200160002060000154600003610b345760405162461bcd60e51b8152602060048201526011602482015270125b9d985b1a59081c1b185e595c881a59607a1b60448201526064016103cf565b80610b3e81611883565b915050610ab8565b506001546040516323b872dd60e01b8152336004820152306024820152604481018490526001600160a01b03909116906323b872dd906064016020604051808303816000875af1158015610b9e573d6000803e3d6000fd5b505050506040513d601f19601f82011682018060405250810190610bc291906118b5565b506000600660008154610bd490611883565b918290555060408051610100810182523381526001600160a01b0387166020820152908101859052909150606081016000604051908082528060200260200182016040528015610c2e578160200160208202803683370190505b5081526020016000604051908082528060200260200182016040528015610c5f578160200160208202803683370190505b5081526000602080830182905260408051808201825283815280830184905281850152436060948501528583526004825291829020845181546001600160a01b039182166001600160a01b0319918216178355868401516001840180549190931691161790559184015160028301559183015180519192610ce8926003850192909101906114dc565b5060808201518051610d049160048401916020909101906114dc565b5060a082015160058201805460ff191691151591909117905560c082015180516006830155602090810151600783015560e090920151600890910155600082815260038252604090208351610d5b928501906114dc565b5060408051828152602081018590526001600160a01b0386169133917f92ed5225f997614241753c97f8dff081ab07610d11f06f0c031e4421679af13f910160405180910390a350505050565b600081815260046020526040902080546001600160a01b03163314610e225760405162461bcd60e51b815260206004820152602a60248201527f4f6e6c7920746865206368616c6c656e6765722063616e2072657665616c20746044820152696865206f7574636f6d6560b01b60648201526084016103cf565b600581015460ff1615610e775760405162461bcd60e51b815260206004820152601c60248201527f5468652067616d6520697320616c72656164792066696e69736865640000000060448201526064016103cf565b60008281526003602081905260409091208054610e979284019190611527565b506000610ea3826111a7565b600084815260056020818152604083208451815590840151600191820155908501805460ff19169091179055909150610edc838361148f565b9050610ee88382610f21565b6040518481527f6543ec12c6e53f26532beb5289ef5732dcd77c2e9e9921ae42b695905f5e84c09060200160405180910390a150505050565b6001600160a01b0381166110ca576001548254600284015460405163a9059cbb60e01b81526001600160a01b039283166004820152602481019190915291169063a9059cbb906044016020604051808303816000875af1158015610f89573d6000803e3d6000fd5b505050506040513d601f19601f82011682018060405250810190610fad91906118b5565b610ff95760405162461bcd60e51b815260206004820152601b60248201527f526566756e6420746f206368616c6c656e676572206661696c6564000000000060448201526064016103cf565b6001805490830154600284015460405163a9059cbb60e01b81526001600160a01b039283166004820152602481019190915291169063a9059cbb906044016020604051808303816000875af1158015611056573d6000803e3d6000fd5b505050506040513d601f19601f8201168201806040525081019061107a91906118b5565b6110c65760405162461bcd60e51b815260206004820152601960248201527f526566756e6420746f206f70706f6e656e74206661696c65640000000000000060448201526064016103cf565b5050565b6000826002015460026110dd91906118f1565b60015460405163a9059cbb60e01b81526001600160a01b0385811660048301526024820184905292935091169063a9059cbb906044016020604051808303816000875af1158015611132573d6000803e3d6000fd5b505050506040513d601f19601f8201168201806040525081019061115691906118b5565b6111a25760405162461bcd60e51b815260206004820152601960248201527f5472616e7366657220746f2077696e6e6572206661696c65640000000000000060448201526064016103cf565b505050565b6040805180820190915260008082526020820152604080518082019091526000808252602082018190526111dc600143611908565b40905060006111ec600a836104c9565b905060015b60038601548110156114855760006007600088600301848154811061121857611218611843565b600091825260208083209091015483528281019390935260409182018120825161014081018452815481526001820154948101949094526002810154928401929092526003808301546001600160801b038082166060870152600160801b918290048116608087015260048086015480831660a0890152839004821660c0880152600586015480831660e08901529290920481166101008701526006909401549093166101208501528a0154929350916007918391908b01906112dc908790611908565b815481106112ec576112ec611843565b6000918252602080832090910154835282810193909352604091820181208251610140810184528154815260018201549481019490945260028101549284019290925260038201546001600160801b038082166060860152600160801b9182900481166080860152600484015480821660a080880182905291849004831660c0880152600586015480841660e08901529390930482166101008701526006909401541661012085015291850151929350916113a7919061191b565b6001600160801b0316905060006113be828861182f565b9050808460a001516001600160801b0316111561142257856113e1600187611908565b815181106113f1576113f1611843565b602002602001015184606001516001600160801b0316111561141d5787518861141982611883565b9052505b61146e565b8561142e600187611908565b8151811061143e5761143e611843565b602002602001015183606001516001600160801b0316111561146e576020880180519061146a82611883565b9052505b50505050808061147d90611883565b9150506111f1565b5091949350505050565b60008160200151826000015111156114b2575081546001600160a01b03166105cc565b6020820151825110156114d3575060018201546001600160a01b03166105cc565b50600092915050565b828054828255906000526020600020908101928215611517579160200282015b828111156115175782518255916020019190600101906114fc565b50611523929150611567565b5090565b8280548282559060005260206000209081019282156115175760005260206000209182015b8281111561151757825482559160010191906001019061154c565b5b808211156115235760008155600101611568565b60006020828403121561158e57600080fd5b5035919050565b80356001600160801b03811681146115ac57600080fd5b919050565b6000806000806000806000806000806101408b8d0312156115d157600080fd5b8a35995060208b0135985060408b013597506115ef60608c01611595565b96506115fd60808c01611595565b955061160b60a08c01611595565b945061161960c08c01611595565b935061162760e08c01611595565b92506116366101008c01611595565b91506116456101208c01611595565b90509295989b9194979a5092959850565b6000806040838503121561166957600080fd5b50508035926020909101359150565b6020808252825182820181905260009190848201906040850190845b818110156116b057835183529284019291840191600101611694565b50909695505050505050565b634e487b7160e01b600052604160045260246000fd5b600082601f8301126116e357600080fd5b8135602067ffffffffffffffff80831115611700576117006116bc565b8260051b604051601f19603f83011681018181108482111715611725576117256116bc565b60405293845285810183019383810192508785111561174357600080fd5b83870191505b8482101561176257813583529183019190830190611749565b979650505050505050565b6000806040838503121561178057600080fd5b82359150602083013567ffffffffffffffff81111561179e57600080fd5b6117aa858286016116d2565b9150509250929050565b6000806000606084860312156117c957600080fd5b83356001600160a01b03811681146117e057600080fd5b925060208401359150604084013567ffffffffffffffff81111561180357600080fd5b61180f868287016116d2565b9150509250925092565b634e487b7160e01b600052601260045260246000fd5b60008261183e5761183e611819565b500690565b634e487b7160e01b600052603260045260246000fd5b634e487b7160e01b600052601160045260246000fd5b60008261187e5761187e611819565b500490565b60006001820161189557611895611859565b5060010190565b6000602082840312156118ae57600080fd5b5051919050565b6000602082840312156118c757600080fd5b815180151581146118d757600080fd5b9392505050565b808201808211156105cc576105cc611859565b80820281158282048414176105cc576105cc611859565b818103818111156105cc576105cc611859565b6001600160801b0381811683821601908082111561193b5761193b611859565b509291505056fea2646970667358221220ca0df3632cbf358a36790e5147137b6b0aa12450b2a7430b297d3534d8d3f24a64736f6c63430008110033",
  "devdoc": {
    "kind": "dev",
    "methods": {},
    "version": 1
  },
  "userdoc": {
    "kind": "user",
    "methods": {},
    "version": 1
  },
  "storageLayout": {
    "storage": [
      {
        "astId": 82,
        "contract": "contracts/FootballGame.sol:FootballGame",
        "label": "owner",
        "offset": 0,
        "slot": "0",
        "type": "t_address"
      },
      {
        "astId": 85,
        "contract": "contracts/FootballGame.sol:FootballGame",
        "label": "footballCoin",
        "offset": 0,
        "slot": "1",
        "type": "t_contract(IERC20)77"
      },
      {
        "astId": 87,
        "contract": "contracts/FootballGame.sol:FootballGame",
        "label": "timelockBlocks",
        "offset": 0,
        "slot": "2",
        "type": "t_uint256"
      },
      {
        "astId": 117,
        "contract": "contracts/FootballGame.sol:FootballGame",
        "label": "challenger_formation",
        "offset": 0,
        "slot": "3",
        "type": "t_mapping(t_uint256,t_array(t_uint256)dyn_storage)"
      },
      {
        "astId": 122,
        "contract": "contracts/FootballGame.sol:FootballGame",
        "label": "games",
        "offset": 0,
        "slot": "4",
        "type": "t_mapping(t_uint256,t_struct(Game)107_storage)"
      },
      {
        "astId": 127,
        "contract": "contracts/FootballGame.sol:FootballGame",
        "label": "gameResults",
        "offset": 0,
        "slot": "5",
        "type": "t_mapping(t_uint256,t_struct(GameResult)112_storage)"
      },
      {
        "astId": 129,
        "contract": "contracts/FootballGame.sol:FootballGame",
        "label": "gameCount",
        "offset": 0,
        "slot": "6",
        "type": "t_uint256"
      },
      {
        "astId": 181,
        "contract": "contracts/FootballGame.sol:FootballGame",
        "label": "players",
        "offset": 0,
        "slot": "7",
        "type": "t_mapping(t_uint256,t_struct(Player)176_storage)"
      }
    ],
    "types": {
      "t_address": {
        "encoding": "inplace",
        "label": "address",
        "numberOfBytes": "20"
      },
      "t_array(t_uint256)dyn_storage": {
        "base": "t_uint256",
        "encoding": "dynamic_array",
        "label": "uint256[]",
        "numberOfBytes": "32"
      },
      "t_bool": {
        "encoding": "inplace",
        "label": "bool",
        "numberOfBytes": "1"
      },
      "t_contract(IERC20)77": {
        "encoding": "inplace",
        "label": "contract IERC20",
        "numberOfBytes": "20"
      },
      "t_mapping(t_uint256,t_array(t_uint256)dyn_storage)": {
        "encoding": "mapping",
        "key": "t_uint256",
        "label": "mapping(uint256 => uint256[])",
        "numberOfBytes": "32",
        "value": "t_array(t_uint256)dyn_storage"
      },
      "t_mapping(t_uint256,t_struct(Game)107_storage)": {
        "encoding": "mapping",
        "key": "t_uint256",
        "label": "mapping(uint256 => struct FootballGame.Game)",
        "numberOfBytes": "32",
        "value": "t_struct(Game)107_storage"
      },
      "t_mapping(t_uint256,t_struct(GameResult)112_storage)": {
        "encoding": "mapping",
        "key": "t_uint256",
        "label": "mapping(uint256 => struct FootballGame.GameResult)",
        "numberOfBytes": "32",
        "value": "t_struct(GameResult)112_storage"
      },
      "t_mapping(t_uint256,t_struct(Player)176_storage)": {
        "encoding": "mapping",
        "key": "t_uint256",
        "label": "mapping(uint256 => struct FootballGame.Player)",
        "numberOfBytes": "32",
        "value": "t_struct(Player)176_storage"
      },
      "t_struct(Game)107_storage": {
        "encoding": "inplace",
        "label": "struct FootballGame.Game",
        "members": [
          {
            "astId": 89,
            "contract": "contracts/FootballGame.sol:FootballGame",
            "label": "challenger",
            "offset": 0,
            "slot": "0",
            "type": "t_address"
          },
          {
            "astId": 91,
            "contract": "contracts/FootballGame.sol:FootballGame",
            "label": "opponent",
            "offset": 0,
            "slot": "1",
            "type": "t_address"
          },
          {
            "astId": 93,
            "contract": "contracts/FootballGame.sol:FootballGame",
            "label": "wagerAmount",
            "offset": 0,
            "slot": "2",
            "type": "t_uint256"
          },
          {
            "astId": 96,
            "contract": "contracts/FootballGame.sol:FootballGame",
            "label": "challengerFormation",
            "offset": 0,
            "slot": "3",
            "type": "t_array(t_uint256)dyn_storage"
          },
          {
            "astId": 99,
            "contract": "contracts/FootballGame.sol:FootballGame",
            "label": "opponentFormation",
            "offset": 0,
            "slot": "4",
            "type": "t_array(t_uint256)dyn_storage"
          },
          {
            "astId": 101,
            "contract": "contracts/FootballGame.sol:FootballGame",
            "label": "isFinished",
            "offset": 0,
            "slot": "5",
            "type": "t_bool"
          },
          {
            "astId": 104,
            "contract": "contracts/FootballGame.sol:FootballGame",
            "label": "result",
            "offset": 0,
            "slot": "6",
            "type": "t_struct(GameResult)112_storage"
          },
          {
            "astId": 106,
            "contract": "contracts/FootballGame.sol:FootballGame",
            "label": "blockNumber",
            "offset": 0,
            "slot": "8",
            "type": "t_uint256"
          }
        ],
        "numberOfBytes": "288"
      },
      "t_struct(GameResult)112_storage": {
        "encoding": "inplace",
        "label": "struct FootballGame.GameResult",
        "members": [
          {
            "astId": 109,
            "contract": "contracts/FootballGame.sol:FootballGame",
            "label": "goalsHomeTeam",
            "offset": 0,
            "slot": "0",
            "type": "t_uint256"
          },
          {
            "astId": 111,
            "contract": "contracts/FootballGame.sol:FootballGame",
            "label": "goalsAwayTeam",
            "offset": 0,
            "slot": "1",
            "type": "t_uint256"
          }
        ],
        "numberOfBytes": "64"
      },
      "t_struct(Player)176_storage": {
        "encoding": "inplace",
        "label": "struct FootballGame.Player",
        "members": [
          {
            "astId": 157,
            "contract": "contracts/FootballGame.sol:FootballGame",
            "label": "player_id",
            "offset": 0,
            "slot": "0",
            "type": "t_uint256"
          },
          {
            "astId": 159,
            "contract": "contracts/FootballGame.sol:FootballGame",
            "label": "team_id",
            "offset": 0,
            "slot": "1",
            "type": "t_uint256"
          },
          {
            "astId": 161,
            "contract": "contracts/FootballGame.sol:FootballGame",
            "label": "position",
            "offset": 0,
            "slot": "2",
            "type": "t_uint256"
          },
          {
            "astId": 163,
            "contract": "contracts/FootballGame.sol:FootballGame",
            "label": "attack",
            "offset": 0,
            "slot": "3",
            "type": "t_uint128"
          },
          {
            "astId": 165,
            "contract": "contracts/FootballGame.sol:FootballGame",
            "label": "defense",
            "offset": 16,
            "slot": "3",
            "type": "t_uint128"
          },
          {
            "astId": 167,
            "contract": "contracts/FootballGame.sol:FootballGame",
            "label": "speed",
            "offset": 0,
            "slot": "4",
            "type": "t_uint128"
          },
          {
            "astId": 169,
            "contract": "contracts/FootballGame.sol:FootballGame",
            "label": "power",
            "offset": 16,
            "slot": "4",
            "type": "t_uint128"
          },
          {
            "astId": 171,
            "contract": "contracts/FootballGame.sol:FootballGame",
            "label": "stamina",
            "offset": 0,
            "slot": "5",
            "type": "t_uint128"
          },
          {
            "astId": 173,
            "contract": "contracts/FootballGame.sol:FootballGame",
            "label": "technique",
            "offset": 16,
            "slot": "5",
            "type": "t_uint128"
          },
          {
            "astId": 175,
            "contract": "contracts/FootballGame.sol:FootballGame",
            "label": "goalkeeping",
            "offset": 0,
            "slot": "6",
            "type": "t_uint128"
          }
        ],
        "numberOfBytes": "224"
      },
      "t_uint128": {
        "encoding": "inplace",
        "label": "uint128",
        "numberOfBytes": "16"
      },
      "t_uint256": {
        "encoding": "inplace",
        "label": "uint256",
        "numberOfBytes": "32"
      }
    }
  }
}