{
  "_format": "hh-sol-artifact-1",
  "contractName": "FootballCoin",
  "sourceName": "contracts/FootballCoin.sol",
  "abi": [
    {
      "inputs": [
        {
          "internalType": "address",
          "name": "initialOwner",
          "type": "address"
        }
      ],
      "stateMutability": "nonpayable",
      "type": "constructor"
    },
    {
      "inputs": [],
      "name": "InvalidShortString",
      "type": "error"
    },
    {
      "inputs": [
        {
          "internalType": "string",
          "name": "str",
          "type": "string"
        }
      ],
      "name": "StringTooLong",
      "type": "error"
    },
    {
      "anonymous": false,
      "inputs": [
        {
          "indexed": true,
          "internalType": "address",
          "name": "owner",
          "type": "address"
        },
        {
          "indexed": true,
          "internalType": "address",
          "name": "spender",
          "type": "address"
        },
        {
          "indexed": false,
          "internalType": "uint256",
          "name": "value",
          "type": "uint256"
        }
      ],
      "name": "Approval",
      "type": "event"
    },
    {
      "anonymous": false,
      "inputs": [],
      "name": "EIP712DomainChanged",
      "type": "event"
    },
    {
      "anonymous": false,
      "inputs": [
        {
          "indexed": true,
          "internalType": "address",
          "name": "previousOwner",
          "type": "address"
        },
        {
          "indexed": true,
          "internalType": "address",
          "name": "newOwner",
          "type": "address"
        }
      ],
      "name": "OwnershipTransferred",
      "type": "event"
    },
    {
      "anonymous": false,
      "inputs": [
        {
          "indexed": true,
          "internalType": "address",
          "name": "from",
          "type": "address"
        },
        {
          "indexed": true,
          "internalType": "address",
          "name": "to",
          "type": "address"
        },
        {
          "indexed": false,
          "internalType": "uint256",
          "name": "value",
          "type": "uint256"
        }
      ],
      "name": "Transfer",
      "type": "event"
    },
    {
      "inputs": [],
      "name": "DOMAIN_SEPARATOR",
      "outputs": [
        {
          "internalType": "bytes32",
          "name": "",
          "type": "bytes32"
        }
      ],
      "stateMutability": "view",
      "type": "function"
    },
    {
      "inputs": [
        {
          "internalType": "address",
          "name": "owner",
          "type": "address"
        },
        {
          "internalType": "address",
          "name": "spender",
          "type": "address"
        }
      ],
      "name": "allowance",
      "outputs": [
        {
          "internalType": "uint256",
          "name": "",
          "type": "uint256"
        }
      ],
      "stateMutability": "view",
      "type": "function"
    },
    {
      "inputs": [
        {
          "internalType": "address",
          "name": "spender",
          "type": "address"
        },
        {
          "internalType": "uint256",
          "name": "amount",
          "type": "uint256"
        }
      ],
      "name": "approve",
      "outputs": [
        {
          "internalType": "bool",
          "name": "",
          "type": "bool"
        }
      ],
      "stateMutability": "nonpayable",
      "type": "function"
    },
    {
      "inputs": [
        {
          "internalType": "address",
          "name": "account",
          "type": "address"
        }
      ],
      "name": "balanceOf",
      "outputs": [
        {
          "internalType": "uint256",
          "name": "",
          "type": "uint256"
        }
      ],
      "stateMutability": "view",
      "type": "function"
    },
    {
      "inputs": [],
      "name": "decimals",
      "outputs": [
        {
          "internalType": "uint8",
          "name": "",
          "type": "uint8"
        }
      ],
      "stateMutability": "view",
      "type": "function"
    },
    {
      "inputs": [
        {
          "internalType": "address",
          "name": "spender",
          "type": "address"
        },
        {
          "internalType": "uint256",
          "name": "subtractedValue",
          "type": "uint256"
        }
      ],
      "name": "decreaseAllowance",
      "outputs": [
        {
          "internalType": "bool",
          "name": "",
          "type": "bool"
        }
      ],
      "stateMutability": "nonpayable",
      "type": "function"
    },
    {
      "inputs": [],
      "name": "eip712Domain",
      "outputs": [
        {
          "internalType": "bytes1",
          "name": "fields",
          "type": "bytes1"
        },
        {
          "internalType": "string",
          "name": "name",
          "type": "string"
        },
        {
          "internalType": "string",
          "name": "version",
          "type": "string"
        },
        {
          "internalType": "uint256",
          "name": "chainId",
          "type": "uint256"
        },
        {
          "internalType": "address",
          "name": "verifyingContract",
          "type": "address"
        },
        {
          "internalType": "bytes32",
          "name": "salt",
          "type": "bytes32"
        },
        {
          "internalType": "uint256[]",
          "name": "extensions",
          "type": "uint256[]"
        }
      ],
      "stateMutability": "view",
      "type": "function"
    },
    {
      "inputs": [
        {
          "internalType": "address",
          "name": "spender",
          "type": "address"
        },
        {
          "internalType": "uint256",
          "name": "addedValue",
          "type": "uint256"
        }
      ],
      "name": "increaseAllowance",
      "outputs": [
        {
          "internalType": "bool",
          "name": "",
          "type": "bool"
        }
      ],
      "stateMutability": "nonpayable",
      "type": "function"
    },
    {
      "inputs": [
        {
          "internalType": "address",
          "name": "to",
          "type": "address"
        },
        {
          "internalType": "uint256",
          "name": "amount",
          "type": "uint256"
        }
      ],
      "name": "mint",
      "outputs": [],
      "stateMutability": "nonpayable",
      "type": "function"
    },
    {
      "inputs": [],
      "name": "name",
      "outputs": [
        {
          "internalType": "string",
          "name": "",
          "type": "string"
        }
      ],
      "stateMutability": "view",
      "type": "function"
    },
    {
      "inputs": [
        {
          "internalType": "address",
          "name": "owner",
          "type": "address"
        }
      ],
      "name": "nonces",
      "outputs": [
        {
          "internalType": "uint256",
          "name": "",
          "type": "uint256"
        }
      ],
      "stateMutability": "view",
      "type": "function"
    },
    {
      "inputs": [],
      "name": "owner",
      "outputs": [
        {
          "internalType": "address",
          "name": "",
          "type": "address"
        }
      ],
      "stateMutability": "view",
      "type": "function"
    },
    {
      "inputs": [
        {
          "internalType": "address",
          "name": "owner",
          "type": "address"
        },
        {
          "internalType": "address",
          "name": "spender",
          "type": "address"
        },
        {
          "internalType": "uint256",
          "name": "value",
          "type": "uint256"
        },
        {
          "internalType": "uint256",
          "name": "deadline",
          "type": "uint256"
        },
        {
          "internalType": "uint8",
          "name": "v",
          "type": "uint8"
        },
        {
          "internalType": "bytes32",
          "name": "r",
          "type": "bytes32"
        },
        {
          "internalType": "bytes32",
          "name": "s",
          "type": "bytes32"
        }
      ],
      "name": "permit",
      "outputs": [],
      "stateMutability": "nonpayable",
      "type": "function"
    },
    {
      "inputs": [],
      "name": "renounceOwnership",
      "outputs": [],
      "stateMutability": "nonpayable",
      "type": "function"
    },
    {
      "inputs": [],
      "name": "symbol",
      "outputs": [
        {
          "internalType": "string",
          "name": "",
          "type": "string"
        }
      ],
      "stateMutability": "view",
      "type": "function"
    },
    {
      "inputs": [],
      "name": "totalSupply",
      "outputs": [
        {
          "internalType": "uint256",
          "name": "",
          "type": "uint256"
        }
      ],
      "stateMutability": "view",
      "type": "function"
    },
    {
      "inputs": [
        {
          "internalType": "address",
          "name": "to",
          "type": "address"
        },
        {
          "internalType": "uint256",
          "name": "amount",
          "type": "uint256"
        }
      ],
      "name": "transfer",
      "outputs": [
        {
          "internalType": "bool",
          "name": "",
          "type": "bool"
        }
      ],
      "stateMutability": "nonpayable",
      "type": "function"
    },
    {
      "inputs": [
        {
          "internalType": "address",
          "name": "from",
          "type": "address"
        },
        {
          "internalType": "address",
          "name": "to",
          "type": "address"
        },
        {
          "internalType": "uint256",
          "name": "amount",
          "type": "uint256"
        }
      ],
      "name": "transferFrom",
      "outputs": [
        {
          "internalType": "bool",
          "name": "",
          "type": "bool"
        }
      ],
      "stateMutability": "nonpayable",
      "type": "function"
    },
    {
      "inputs": [
        {
          "internalType": "address",
          "name": "newOwner",
          "type": "address"
        }
      ],
      "name": "transferOwnership",
      "outputs": [],
      "stateMutability": "nonpayable",
      "type": "function"
    }
  ],
  "bytecode": "0x6101606040523480156200001257600080fd5b5060405162001a5538038062001a558339810160408190526200003591620002c0565b6040518060400160405280600c81526020016b2337b7ba3130b63621b7b4b760a11b81525080604051806040016040528060018152602001603160f81b8152506040518060400160405280600c81526020016b2337b7ba3130b63621b7b4b760a11b8152506040518060400160405280600381526020016246424360e81b8152508160039081620000c7919062000397565b506004620000d6828262000397565b505050620000f3620000ed620001cb60201b60201c565b620001cf565b6200010e6006836200022160201b6200071b1790919060201c565b610120526200012b81600762000221602090811b6200071b17901c565b61014052815160208084019190912060e052815190820120610100524660a052620001b960e05161010051604080517f8b73c3c69bb8fe3d512ecc4cf759cc79239f7b179b0ffacaa9a75d522b39400f60208201529081019290925260608201524660808201523060a082015260009060c00160405160208183030381529060405280519060200120905090565b60805250503060c05250620004d89050565b3390565b600580546001600160a01b038381166001600160a01b0319831681179093556040519116919082907f8be0079c531659141344cd1fd0a4f28419497f9722a3daafe3b4186f6b6457e090600090a35050565b60006020835110156200024157620002398362000271565b90506200026b565b826200025883620002bd60201b6200074c1760201c565b9062000265908262000397565b5060ff90505b92915050565b600080829050601f81511115620002a8578260405163305a27a960e01b81526004016200029f919062000463565b60405180910390fd5b8051620002b582620004b3565b179392505050565b90565b600060208284031215620002d357600080fd5b81516001600160a01b0381168114620002eb57600080fd5b9392505050565b634e487b7160e01b600052604160045260246000fd5b600181811c908216806200031d57607f821691505b6020821081036200033e57634e487b7160e01b600052602260045260246000fd5b50919050565b601f8211156200039257600081815260208120601f850160051c810160208610156200036d5750805b601f850160051c820191505b818110156200038e5782815560010162000379565b5050505b505050565b81516001600160401b03811115620003b357620003b3620002f2565b620003cb81620003c4845462000308565b8462000344565b602080601f831160018114620004035760008415620003ea5750858301515b600019600386901b1c1916600185901b1785556200038e565b600085815260208120601f198616915b82811015620004345788860151825594840194600190910190840162000413565b5085821015620004535787850151600019600388901b60f8161c191681555b5050505050600190811b01905550565b600060208083528351808285015260005b81811015620004925785810183015185820160400152820162000474565b506000604082860101526040601f19601f8301168501019250505092915050565b805160208083015191908110156200033e5760001960209190910360031b1b16919050565b60805160a05160c05160e051610100516101205161014051611522620005336000396000610426015260006103fb01526000610b6b01526000610b4301526000610a9e01526000610ac801526000610af201526115226000f3fe608060405234801561001057600080fd5b50600436106101215760003560e01c8063715018a6116100ad578063a457c2d711610071578063a457c2d71461024d578063a9059cbb14610260578063d505accf14610273578063dd62ed3e14610286578063f2fde38b1461029957600080fd5b8063715018a6146101f45780637ecebe00146101fc57806384b0196e1461020f5780638da5cb5b1461022a57806395d89b411461024557600080fd5b8063313ce567116100f4578063313ce5671461018c5780633644e5151461019b57806339509351146101a357806340c10f19146101b657806370a08231146101cb57600080fd5b806306fdde0314610126578063095ea7b31461014457806318160ddd1461016757806323b872dd14610179575b600080fd5b61012e6102ac565b60405161013b9190611146565b60405180910390f35b61015761015236600461117c565b61033e565b604051901515815260200161013b565b6002545b60405190815260200161013b565b6101576101873660046111a6565b610358565b6040516012815260200161013b565b61016b61037c565b6101576101b136600461117c565b61038b565b6101c96101c436600461117c565b6103ad565b005b61016b6101d93660046111e2565b6001600160a01b031660009081526020819052604090205490565b6101c96103bb565b61016b61020a3660046111e2565b6103cf565b6102176103ed565b60405161013b97969594939291906111fd565b6005546040516001600160a01b03909116815260200161013b565b61012e610476565b61015761025b36600461117c565b610485565b61015761026e36600461117c565b610505565b6101c9610281366004611293565b610513565b61016b610294366004611306565b610677565b6101c96102a73660046111e2565b6106a2565b6060600380546102bb90611339565b80601f01602080910402602001604051908101604052809291908181526020018280546102e790611339565b80156103345780601f1061030957610100808354040283529160200191610334565b820191906000526020600020905b81548152906001019060200180831161031757829003601f168201915b5050505050905090565b60003361034c81858561074f565b60019150505b92915050565b600033610366858285610873565b6103718585856108ed565b506001949350505050565b6000610386610a91565b905090565b60003361034c81858561039e8383610677565b6103a8919061136d565b61074f565b6103b78282610bbc565b5050565b6103c3610c7b565b6103cd6000610cd5565b565b6001600160a01b038116600090815260086020526040812054610352565b6000606080828080836104217f00000000000000000000000000000000000000000000000000000000000000006006610d27565b61044c7f00000000000000000000000000000000000000000000000000000000000000006007610d27565b60408051600080825260208201909252600f60f81b9b939a50919850469750309650945092509050565b6060600480546102bb90611339565b600033816104938286610677565b9050838110156104f85760405162461bcd60e51b815260206004820152602560248201527f45524332303a2064656372656173656420616c6c6f77616e63652062656c6f77604482015264207a65726f60d81b60648201526084015b60405180910390fd5b610371828686840361074f565b60003361034c8185856108ed565b834211156105635760405162461bcd60e51b815260206004820152601d60248201527f45524332305065726d69743a206578706972656420646561646c696e6500000060448201526064016104ef565b60007f6e71edae12b1b97f4d1f60370fef10105fa2faae0126114a169c64845d6126c98888886105928c610dcb565b6040805160208101969096526001600160a01b0394851690860152929091166060840152608083015260a082015260c0810186905260e00160405160208183030381529060405280519060200120905060006105ed82610df3565b905060006105fd82878787610e20565b9050896001600160a01b0316816001600160a01b0316146106605760405162461bcd60e51b815260206004820152601e60248201527f45524332305065726d69743a20696e76616c6964207369676e6174757265000060448201526064016104ef565b61066b8a8a8a61074f565b50505050505050505050565b6001600160a01b03918216600090815260016020908152604080832093909416825291909152205490565b6106aa610c7b565b6001600160a01b03811661070f5760405162461bcd60e51b815260206004820152602660248201527f4f776e61626c653a206e6577206f776e657220697320746865207a65726f206160448201526564647265737360d01b60648201526084016104ef565b61071881610cd5565b50565b60006020835110156107375761073083610e48565b9050610352565b8161074284826113f2565b5060ff9050610352565b90565b6001600160a01b0383166107b15760405162461bcd60e51b8152602060048201526024808201527f45524332303a20617070726f76652066726f6d20746865207a65726f206164646044820152637265737360e01b60648201526084016104ef565b6001600160a01b0382166108125760405162461bcd60e51b815260206004820152602260248201527f45524332303a20617070726f766520746f20746865207a65726f206164647265604482015261737360f01b60648201526084016104ef565b6001600160a01b0383811660008181526001602090815260408083209487168084529482529182902085905590518481527f8c5be1e5ebec7d5bd14f71427d1e84f3dd0314c0f7b2291e5b200ac8c7c3b925910160405180910390a3505050565b600061087f8484610677565b905060001981146108e757818110156108da5760405162461bcd60e51b815260206004820152601d60248201527f45524332303a20696e73756666696369656e7420616c6c6f77616e636500000060448201526064016104ef565b6108e7848484840361074f565b50505050565b6001600160a01b0383166109515760405162461bcd60e51b815260206004820152602560248201527f45524332303a207472616e736665722066726f6d20746865207a65726f206164604482015264647265737360d81b60648201526084016104ef565b6001600160a01b0382166109b35760405162461bcd60e51b815260206004820152602360248201527f45524332303a207472616e7366657220746f20746865207a65726f206164647260448201526265737360e81b60648201526084016104ef565b6001600160a01b03831660009081526020819052604090205481811015610a2b5760405162461bcd60e51b815260206004820152602660248201527f45524332303a207472616e7366657220616d6f756e7420657863656564732062604482015265616c616e636560d01b60648201526084016104ef565b6001600160a01b03848116600081815260208181526040808320878703905593871680835291849020805487019055925185815290927fddf252ad1be2c89b69c2b068fc378daa952ba7f163c4a11628f55a4df523b3ef910160405180910390a36108e7565b6000306001600160a01b037f000000000000000000000000000000000000000000000000000000000000000016148015610aea57507f000000000000000000000000000000000000000000000000000000000000000046145b15610b1457507f000000000000000000000000000000000000000000000000000000000000000090565b610386604080517f8b73c3c69bb8fe3d512ecc4cf759cc79239f7b179b0ffacaa9a75d522b39400f60208201527f0000000000000000000000000000000000000000000000000000000000000000918101919091527f000000000000000000000000000000000000000000000000000000000000000060608201524660808201523060a082015260009060c00160405160208183030381529060405280519060200120905090565b6001600160a01b038216610c125760405162461bcd60e51b815260206004820152601f60248201527f45524332303a206d696e7420746f20746865207a65726f20616464726573730060448201526064016104ef565b8060026000828254610c24919061136d565b90915550506001600160a01b038216600081815260208181526040808320805486019055518481527fddf252ad1be2c89b69c2b068fc378daa952ba7f163c4a11628f55a4df523b3ef910160405180910390a35050565b6005546001600160a01b031633146103cd5760405162461bcd60e51b815260206004820181905260248201527f4f776e61626c653a2063616c6c6572206973206e6f7420746865206f776e657260448201526064016104ef565b600580546001600160a01b038381166001600160a01b0319831681179093556040519116919082907f8be0079c531659141344cd1fd0a4f28419497f9722a3daafe3b4186f6b6457e090600090a35050565b606060ff8314610d3a5761073083610e8b565b818054610d4690611339565b80601f0160208091040260200160405190810160405280929190818152602001828054610d7290611339565b8015610dbf5780601f10610d9457610100808354040283529160200191610dbf565b820191906000526020600020905b815481529060010190602001808311610da257829003601f168201915b50505050509050610352565b6001600160a01b03811660009081526008602052604090208054600181018255905b50919050565b6000610352610e00610a91565b8360405161190160f01b8152600281019290925260228201526042902090565b6000806000610e3187878787610eca565b91509150610e3e81610f8e565b5095945050505050565b600080829050601f81511115610e73578260405163305a27a960e01b81526004016104ef9190611146565b8051610e7e826114b2565b179392505050565b505050565b60606000610e98836110d8565b604080516020808252818301909252919250600091906020820181803683375050509182525060208101929092525090565b6000807f7fffffffffffffffffffffffffffffff5d576e7357a4501ddfe92f46681b20a0831115610f015750600090506003610f85565b6040805160008082526020820180845289905260ff881692820192909252606081018690526080810185905260019060a0016020604051602081039080840390855afa158015610f55573d6000803e3d6000fd5b5050604051601f1901519150506001600160a01b038116610f7e57600060019250925050610f85565b9150600090505b94509492505050565b6000816004811115610fa257610fa26114d6565b03610faa5750565b6001816004811115610fbe57610fbe6114d6565b0361100b5760405162461bcd60e51b815260206004820152601860248201527f45434453413a20696e76616c6964207369676e6174757265000000000000000060448201526064016104ef565b600281600481111561101f5761101f6114d6565b0361106c5760405162461bcd60e51b815260206004820152601f60248201527f45434453413a20696e76616c6964207369676e6174757265206c656e6774680060448201526064016104ef565b6003816004811115611080576110806114d6565b036107185760405162461bcd60e51b815260206004820152602260248201527f45434453413a20696e76616c6964207369676e6174757265202773272076616c604482015261756560f01b60648201526084016104ef565b600060ff8216601f81111561035257604051632cd44ac360e21b815260040160405180910390fd5b6000815180845260005b818110156111265760208185018101518683018201520161110a565b506000602082860101526020601f19601f83011685010191505092915050565b6020815260006111596020830184611100565b9392505050565b80356001600160a01b038116811461117757600080fd5b919050565b6000806040838503121561118f57600080fd5b61119883611160565b946020939093013593505050565b6000806000606084860312156111bb57600080fd5b6111c484611160565b92506111d260208501611160565b9150604084013590509250925092565b6000602082840312156111f457600080fd5b61115982611160565b60ff60f81b881681526000602060e08184015261121d60e084018a611100565b838103604085015261122f818a611100565b606085018990526001600160a01b038816608086015260a0850187905284810360c0860152855180825283870192509083019060005b8181101561128157835183529284019291840191600101611265565b50909c9b505050505050505050505050565b600080600080600080600060e0888a0312156112ae57600080fd5b6112b788611160565b96506112c560208901611160565b95506040880135945060608801359350608088013560ff811681146112e957600080fd5b9699959850939692959460a0840135945060c09093013592915050565b6000806040838503121561131957600080fd5b61132283611160565b915061133060208401611160565b90509250929050565b600181811c9082168061134d57607f821691505b602082108103610ded57634e487b7160e01b600052602260045260246000fd5b8082018082111561035257634e487b7160e01b600052601160045260246000fd5b634e487b7160e01b600052604160045260246000fd5b601f821115610e8657600081815260208120601f850160051c810160208610156113cb5750805b601f850160051c820191505b818110156113ea578281556001016113d7565b505050505050565b815167ffffffffffffffff81111561140c5761140c61138e565b6114208161141a8454611339565b846113a4565b602080601f831160018114611455576000841561143d5750858301515b600019600386901b1c1916600185901b1785556113ea565b600085815260208120601f198616915b8281101561148457888601518255948401946001909101908401611465565b50858210156114a25787850151600019600388901b60f8161c191681555b5050505050600190811b01905550565b80516020808301519190811015610ded5760001960209190910360031b1b16919050565b634e487b7160e01b600052602160045260246000fdfea26469706673582212202c549286d146813b6f9bf9386d4def06ea70d9e725b42c424b7a95b3d7959d5264736f6c63430008110033",
  "linkReferences": {},
  "deployedLinkReferences": {}
}