{
  "address": "0x072117443CEb3920d9D95d2F005b23FeC9E761aD",
  "abi": [
    {
      "inputs": [
        {
          "internalType": "contract IERC20",
          "name": "_footballCoin",
          "type": "address"
        }
      ],
      "stateMutability": "nonpayable",
      "type": "constructor"
    },
    {
      "anonymous": false,
      "inputs": [
        {
          "indexed": false,
          "internalType": "uint256",
          "name": "gameId",
          "type": "uint256"
        },
        {
          "indexed": true,
          "internalType": "address",
          "name": "opponent",
          "type": "address"
        },
        {
          "indexed": false,
          "internalType": "uint256",
          "name": "wagerAmount",
          "type": "uint256"
        }
      ],
      "name": "GameAccepted",
      "type": "event"
    },
    {
      "anonymous": false,
      "inputs": [
        {
          "indexed": false,
          "internalType": "uint256",
          "name": "gameId",
          "type": "uint256"
        }
      ],
      "name": "GameFinished",
      "type": "event"
    },
    {
      "anonymous": false,
      "inputs": [
        {
          "indexed": false,
          "internalType": "uint256",
          "name": "gameId",
          "type": "uint256"
        },
        {
          "indexed": true,
          "internalType": "address",
          "name": "challenger",
          "type": "address"
        },
        {
          "indexed": true,
          "internalType": "address",
          "name": "opponent",
          "type": "address"
        },
        {
          "indexed": false,
          "internalType": "uint256",
          "name": "wagerAmount",
          "type": "uint256"
        }
      ],
      "name": "GameProposed",
      "type": "event"
    },
    {
      "inputs": [
        {
          "internalType": "uint256",
          "name": "gameId",
          "type": "uint256"
        },
        {
          "internalType": "uint256[]",
          "name": "formation",
          "type": "uint256[]"
        }
      ],
      "name": "acceptGame",
      "outputs": [],
      "stateMutability": "nonpayable",
      "type": "function"
    },
    {
      "inputs": [
        {
          "internalType": "uint256",
          "name": "playerId",
          "type": "uint256"
        },
        {
          "internalType": "uint256",
          "name": "teamId",
          "type": "uint256"
        },
        {
          "internalType": "uint256",
          "name": "position",
          "type": "uint256"
        },
        {
          "internalType": "uint128",
          "name": "attack",
          "type": "uint128"
        },
        {
          "internalType": "uint128",
          "name": "defense",
          "type": "uint128"
        },
        {
          "internalType": "uint128",
          "name": "speed",
          "type": "uint128"
        },
        {
          "internalType": "uint128",
          "name": "power",
          "type": "uint128"
        },
        {
          "internalType": "uint128",
          "name": "stamina",
          "type": "uint128"
        },
        {
          "internalType": "uint128",
          "name": "technique",
          "type": "uint128"
        },
        {
          "internalType": "uint128",
          "name": "goalkeeping",
          "type": "uint128"
        }
      ],
      "name": "addPlayer",
      "outputs": [],
      "stateMutability": "nonpayable",
      "type": "function"
    },
    {
      "inputs": [],
      "name": "footballCoin",
      "outputs": [
        {
          "internalType": "contract IERC20",
          "name": "",
          "type": "address"
        }
      ],
      "stateMutability": "view",
      "type": "function"
    },
    {
      "inputs": [],
      "name": "gameCount",
      "outputs": [
        {
          "internalType": "uint256",
          "name": "",
          "type": "uint256"
        }
      ],
      "stateMutability": "view",
      "type": "function"
    },
    {
      "inputs": [
        {
          "internalType": "uint256",
          "name": "",
          "type": "uint256"
        }
      ],
      "name": "gameResults",
      "outputs": [
        {
          "internalType": "uint256",
          "name": "goalsHomeTeam",
          "type": "uint256"
        },
        {
          "internalType": "uint256",
          "name": "goalsAwayTeam",
          "type": "uint256"
        }
      ],
      "stateMutability": "view",
      "type": "function"
    },
    {
      "inputs": [
        {
          "internalType": "uint256",
          "name": "",
          "type": "uint256"
        }
      ],
      "name": "games",
      "outputs": [
        {
          "internalType": "address",
          "name": "challenger",
          "type": "address"
        },
        {
          "internalType": "address",
          "name": "opponent",
          "type": "address"
        },
        {
          "internalType": "uint256",
          "name": "wagerAmount",
          "type": "uint256"
        },
        {
          "internalType": "bool",
          "name": "isFinished",
          "type": "bool"
        },
        {
          "internalType": "string",
          "name": "result",
          "type": "string"
        }
      ],
      "stateMutability": "view",
      "type": "function"
    },
    {
      "inputs": [],
      "name": "owner",
      "outputs": [
        {
          "internalType": "address",
          "name": "",
          "type": "address"
        }
      ],
      "stateMutability": "view",
      "type": "function"
    },
    {
      "inputs": [
        {
          "internalType": "uint256",
          "name": "",
          "type": "uint256"
        }
      ],
      "name": "players",
      "outputs": [
        {
          "internalType": "uint256",
          "name": "player_id",
          "type": "uint256"
        },
        {
          "internalType": "uint256",
          "name": "team_id",
          "type": "uint256"
        },
        {
          "internalType": "uint256",
          "name": "position",
          "type": "uint256"
        },
        {
          "internalType": "uint128",
          "name": "attack",
          "type": "uint128"
        },
        {
          "internalType": "uint128",
          "name": "defense",
          "type": "uint128"
        },
        {
          "internalType": "uint128",
          "name": "speed",
          "type": "uint128"
        },
        {
          "internalType": "uint128",
          "name": "power",
          "type": "uint128"
        },
        {
          "internalType": "uint128",
          "name": "stamina",
          "type": "uint128"
        },
        {
          "internalType": "uint128",
          "name": "technique",
          "type": "uint128"
        },
        {
          "internalType": "uint128",
          "name": "goalkeeping",
          "type": "uint128"
        }
      ],
      "stateMutability": "view",
      "type": "function"
    },
    {
      "inputs": [
        {
          "internalType": "address",
          "name": "opponent",
          "type": "address"
        },
        {
          "internalType": "uint256",
          "name": "wagerAmount",
          "type": "uint256"
        },
        {
          "internalType": "uint256[]",
          "name": "formation",
          "type": "uint256[]"
        }
      ],
      "name": "proposeGame",
      "outputs": [],
      "stateMutability": "nonpayable",
      "type": "function"
    },
    {
      "inputs": [
        {
          "internalType": "uint256",
          "name": "gameId",
          "type": "uint256"
        }
      ],
      "name": "revealOutcome",
      "outputs": [],
      "stateMutability": "nonpayable",
      "type": "function"
    }
  ],
  "transactionHash": "0x48e545e3a9d0fee75f9611ba6b38dc7e2ffe5e4542b171a0a6d081cf9915a3c6",
  "args": [
    "0xbb1DF1ab33786Ac6B91d9D16b445c7b66825979e"
  ],
  "numDeployments": 1,
  "solcInputHash": "507a89020474a2d1cf9b75017992f8e7",
  "bytecode": "0x608060405234801561001057600080fd5b506040516114e93803806114e983398101604081905261002f91610062565b60008054336001600160a01b031991821617909155600180549091166001600160a01b0392909216919091179055610092565b60006020828403121561007457600080fd5b81516001600160a01b038116811461008b57600080fd5b9392505050565b611448806100a16000396000f3fe608060405234801561001057600080fd5b506004361061009e5760003560e01c80638da5cb5b116100665780638da5cb5b1461013a578063cd86f8101461014d578063cfb9479814610160578063f71d96cb14610173578063fdba1b7c1461024757600080fd5b8063117a5b90146100a35780634d1975b4146100d0578063506d7e2d146100e757806359c892a9146100fc57806364407bad1461010f575b600080fd5b6100b66100b1366004610f91565b610283565b6040516100c7959493929190610faa565b60405180910390f35b6100d960055481565b6040519081526020016100c7565b6100fa6100f5366004611040565b61034d565b005b6100fa61010a366004611196565b610496565b600154610122906001600160a01b031681565b6040516001600160a01b0390911681526020016100c7565b600054610122906001600160a01b031681565b6100fa61015b3660046111dd565b6106b6565b6100fa61016e366004610f91565b6109c3565b6101ea610181366004610f91565b600660208190526000918252604090912080546001820154600283015460038401546004850154600586015495909601549395929491936001600160801b0380831694600160801b9384900482169481831694918290048316938184169392909104821691168a565b604080519a8b5260208b0199909952978901969096526001600160801b039485166060890152928416608088015290831660a0870152821660c0860152811660e085015290811661010084015216610120820152610140016100c7565b61026e610255366004610f91565b6004602052600090815260409020805460019091015482565b604080519283526020830191909152016100c7565b600360205260009081526040902080546001820154600283015460058401546006850180546001600160a01b03958616969490951694929360ff909216926102ca90611242565b80601f01602080910402602001604051908101604052809291908181526020018280546102f690611242565b80156103435780601f1061031857610100808354040283529160200191610343565b820191906000526020600020905b81548152906001019060200180831161032657829003601f168201915b5050505050905085565b6000546001600160a01b031633146103ac5760405162461bcd60e51b815260206004820152601760248201527f43616c6c6572206973206e6f7420746865206f776e657200000000000000000060448201526064015b60405180910390fd5b60408051610140810182528b815260208082019b8c528183019a8b526001600160801b03998a1660608301908152988a1660808301908152978a1660a08301908152968a1660c08301908152958a1660e08301908152948a166101008301908152938a16610120830190815260009d8e5260069182905292909c2090518155995160018b0155975160028a015594519351938616600160801b94871685021760038901559151905190851690851683021760048701555191519183169183160217600584015590519190920180546fffffffffffffffffffffffffffffffff191691909216179055565b600082815260036020526040902060018101546001600160a01b0316331461050e5760405162461bcd60e51b815260206004820152602560248201527f4f6e6c7920746865206f70706f6e656e742063616e20616363657074207468656044820152642067616d6560d81b60648201526084016103a3565b6002810154600154604051636eb1769f60e11b81523360048201523060248201526001600160a01b039091169063dd62ed3e90604401602060405180830381865afa158015610561573d6000803e3d6000fd5b505050506040513d601f19601f82011682018060405250810190610585919061127c565b10156105d35760405162461bcd60e51b815260206004820181905260248201527f496e73756666696369656e7420616c6c6f77616e636520666f7220776167657260448201526064016103a3565b60015460028201546040516323b872dd60e01b815233600482015230602482015260448101919091526001600160a01b03909116906323b872dd906064016020604051808303816000875af1158015610630573d6000803e3d6000fd5b505050506040513d601f19601f820116820180604052508101906106549190611295565b50815161066a9060048301906020850190610ef1565b50600281015460405133917fc12989f4ffb898af45d9bec31ea6e4b22af6acc72ca98399ca9a866e72c954f8916106a991878252602082015260400190565b60405180910390a2505050565b600154604051636eb1769f60e11b815233600482015230602482015283916001600160a01b03169063dd62ed3e90604401602060405180830381865afa158015610704573d6000803e3d6000fd5b505050506040513d601f19601f82011682018060405250810190610728919061127c565b10156107765760405162461bcd60e51b815260206004820181905260248201527f496e73756666696369656e7420616c6c6f77616e636520666f7220776167657260448201526064016103a3565b6001546040516323b872dd60e01b8152336004820152306024820152604481018490526001600160a01b03909116906323b872dd906064016020604051808303816000875af11580156107cd573d6000803e3d6000fd5b505050506040513d601f19601f820116820180604052508101906107f19190611295565b506000600560008154610803906112d4565b91829055506040805160e0810182523381526001600160a01b038716602082015290810185905290915060608101600060405190808252806020026020018201604052801561085c578160200160208202803683370190505b508152602001600060405190808252806020026020018201604052801561088d578160200160208202803683370190505b5081526000602080830182905260408051808301825283815293810193909352848252600380825291839020845181546001600160a01b039182166001600160a01b0319918216178355868401516001840180549190931691161790559284015160028401556060840151805161090b938501929190910190610ef1565b5060808201518051610927916004840191602090910190610ef1565b5060a082015160058201805460ff191691151591909117905560c08201516006820190610954908261133b565b5050506000818152600260209081526040909120835161097692850190610ef1565b5060408051828152602081018590526001600160a01b0386169133917f92ed5225f997614241753c97f8dff081ab07610d11f06f0c031e4421679af13f910160405180910390a350505050565b600081815260036020526040902080546001600160a01b03163314610a3d5760405162461bcd60e51b815260206004820152602a60248201527f4f6e6c7920746865206368616c6c656e6765722063616e2072657665616c20746044820152696865206f7574636f6d6560b01b60648201526084016103a3565b600581015460ff1615610a925760405162461bcd60e51b815260206004820152601c60248201527f5468652067616d6520697320616c72656164792066696e69736865640000000060448201526064016103a3565b60008281526002602052604090208054610ab0916003840191610f3c565b506000610abc82610b75565b600084815260046020908152604091829020835181558184015160018201559183015180519394508493610af69260028501920190610ef1565b5060608201518051610b12916003840191602090910190610ef1565b50505060058201805460ff191660011790556000610b308383610c1d565b9050610b3c8382610c6b565b6040518481527f6543ec12c6e53f26532beb5289ef5732dcd77c2e9e9921ae42b695905f5e84c09060200160405180910390a150505050565b610ba06040518060800160405280600081526020016000815260200160608152602001606081525090565b6040805160808101825260018152600260208201529081016000604051908082528060200260200182016040528015610be3578160200160208202803683370190505b5081526020016000604051908082528060200260200182016040528015610c14578160200160208202803683370190505b50905292915050565b6000816020015182600001511115610c40575081546001600160a01b0316610c65565b602082015182511015610c61575060018201546001600160a01b0316610c65565b5060005b92915050565b6001600160a01b038116610e14576001548254600284015460405163a9059cbb60e01b81526001600160a01b039283166004820152602481019190915291169063a9059cbb906044016020604051808303816000875af1158015610cd3573d6000803e3d6000fd5b505050506040513d601f19601f82011682018060405250810190610cf79190611295565b610d435760405162461bcd60e51b815260206004820152601b60248201527f526566756e6420746f206368616c6c656e676572206661696c6564000000000060448201526064016103a3565b6001805490830154600284015460405163a9059cbb60e01b81526001600160a01b039283166004820152602481019190915291169063a9059cbb906044016020604051808303816000875af1158015610da0573d6000803e3d6000fd5b505050506040513d601f19601f82011682018060405250810190610dc49190611295565b610e105760405162461bcd60e51b815260206004820152601960248201527f526566756e6420746f206f70706f6e656e74206661696c65640000000000000060448201526064016103a3565b5050565b600082600201546002610e2791906113fb565b60015460405163a9059cbb60e01b81526001600160a01b0385811660048301526024820184905292935091169063a9059cbb906044016020604051808303816000875af1158015610e7c573d6000803e3d6000fd5b505050506040513d601f19601f82011682018060405250810190610ea09190611295565b610eec5760405162461bcd60e51b815260206004820152601960248201527f5472616e7366657220746f2077696e6e6572206661696c65640000000000000060448201526064016103a3565b505050565b828054828255906000526020600020908101928215610f2c579160200282015b82811115610f2c578251825591602001919060010190610f11565b50610f38929150610f7c565b5090565b828054828255906000526020600020908101928215610f2c5760005260206000209182015b82811115610f2c578254825591600101919060010190610f61565b5b80821115610f385760008155600101610f7d565b600060208284031215610fa357600080fd5b5035919050565b600060018060a01b038088168352602081881681850152866040850152851515606085015260a06080850152845191508160a085015260005b82811015610fff5785810182015185820160c001528101610fe3565b5050600060c0828501015260c0601f19601f8301168401019150509695505050505050565b80356001600160801b038116811461103b57600080fd5b919050565b6000806000806000806000806000806101408b8d03121561106057600080fd5b8a35995060208b0135985060408b0135975061107e60608c01611024565b965061108c60808c01611024565b955061109a60a08c01611024565b94506110a860c08c01611024565b93506110b660e08c01611024565b92506110c56101008c01611024565b91506110d46101208c01611024565b90509295989b9194979a5092959850565b634e487b7160e01b600052604160045260246000fd5b600082601f83011261110c57600080fd5b8135602067ffffffffffffffff80831115611129576111296110e5565b8260051b604051601f19603f8301168101818110848211171561114e5761114e6110e5565b60405293845285810183019383810192508785111561116c57600080fd5b83870191505b8482101561118b57813583529183019190830190611172565b979650505050505050565b600080604083850312156111a957600080fd5b82359150602083013567ffffffffffffffff8111156111c757600080fd5b6111d3858286016110fb565b9150509250929050565b6000806000606084860312156111f257600080fd5b83356001600160a01b038116811461120957600080fd5b925060208401359150604084013567ffffffffffffffff81111561122c57600080fd5b611238868287016110fb565b9150509250925092565b600181811c9082168061125657607f821691505b60208210810361127657634e487b7160e01b600052602260045260246000fd5b50919050565b60006020828403121561128e57600080fd5b5051919050565b6000602082840312156112a757600080fd5b815180151581146112b757600080fd5b9392505050565b634e487b7160e01b600052601160045260246000fd5b6000600182016112e6576112e66112be565b5060010190565b601f821115610eec57600081815260208120601f850160051c810160208610156113145750805b601f850160051c820191505b8181101561133357828155600101611320565b505050505050565b815167ffffffffffffffff811115611355576113556110e5565b611369816113638454611242565b846112ed565b602080601f83116001811461139e57600084156113865750858301515b600019600386901b1c1916600185901b178555611333565b600085815260208120601f198616915b828110156113cd578886015182559484019460019091019084016113ae565b50858210156113eb5787850151600019600388901b60f8161c191681555b5050505050600190811b01905550565b8082028115828204841417610c6557610c656112be56fea2646970667358221220272b746497f36ec85ae4ae4fea9c559c14b6a033fe10d9fa04a506c82ee42a3664736f6c63430008110033",
  "devdoc": {
    "kind": "dev",
    "methods": {},
    "version": 1
  },
  "userdoc": {
    "kind": "user",
    "methods": {},
    "version": 1
  },
  "storageLayout": {
    "storage": [
      {
        "astId": 82,
        "contract": "contracts/FootballGame.sol:FootballGame",
        "label": "owner",
        "offset": 0,
        "slot": "0",
        "type": "t_address"
      },
      {
        "astId": 85,
        "contract": "contracts/FootballGame.sol:FootballGame",
        "label": "footballCoin",
        "offset": 0,
        "slot": "1",
        "type": "t_contract(IERC20)77"
      },
      {
        "astId": 118,
        "contract": "contracts/FootballGame.sol:FootballGame",
        "label": "challenger_formation",
        "offset": 0,
        "slot": "2",
        "type": "t_mapping(t_uint256,t_array(t_uint256)dyn_storage)"
      },
      {
        "astId": 123,
        "contract": "contracts/FootballGame.sol:FootballGame",
        "label": "games",
        "offset": 0,
        "slot": "3",
        "type": "t_mapping(t_uint256,t_struct(Game)102_storage)"
      },
      {
        "astId": 128,
        "contract": "contracts/FootballGame.sol:FootballGame",
        "label": "gameResults",
        "offset": 0,
        "slot": "4",
        "type": "t_mapping(t_uint256,t_struct(GameResult)113_storage)"
      },
      {
        "astId": 130,
        "contract": "contracts/FootballGame.sol:FootballGame",
        "label": "gameCount",
        "offset": 0,
        "slot": "5",
        "type": "t_uint256"
      },
      {
        "astId": 178,
        "contract": "contracts/FootballGame.sol:FootballGame",
        "label": "players",
        "offset": 0,
        "slot": "6",
        "type": "t_mapping(t_uint256,t_struct(Player)173_storage)"
      }
    ],
    "types": {
      "t_address": {
        "encoding": "inplace",
        "label": "address",
        "numberOfBytes": "20"
      },
      "t_array(t_uint256)dyn_storage": {
        "base": "t_uint256",
        "encoding": "dynamic_array",
        "label": "uint256[]",
        "numberOfBytes": "32"
      },
      "t_bool": {
        "encoding": "inplace",
        "label": "bool",
        "numberOfBytes": "1"
      },
      "t_contract(IERC20)77": {
        "encoding": "inplace",
        "label": "contract IERC20",
        "numberOfBytes": "20"
      },
      "t_mapping(t_uint256,t_array(t_uint256)dyn_storage)": {
        "encoding": "mapping",
        "key": "t_uint256",
        "label": "mapping(uint256 => uint256[])",
        "numberOfBytes": "32",
        "value": "t_array(t_uint256)dyn_storage"
      },
      "t_mapping(t_uint256,t_struct(Game)102_storage)": {
        "encoding": "mapping",
        "key": "t_uint256",
        "label": "mapping(uint256 => struct FootballGame.Game)",
        "numberOfBytes": "32",
        "value": "t_struct(Game)102_storage"
      },
      "t_mapping(t_uint256,t_struct(GameResult)113_storage)": {
        "encoding": "mapping",
        "key": "t_uint256",
        "label": "mapping(uint256 => struct FootballGame.GameResult)",
        "numberOfBytes": "32",
        "value": "t_struct(GameResult)113_storage"
      },
      "t_mapping(t_uint256,t_struct(Player)173_storage)": {
        "encoding": "mapping",
        "key": "t_uint256",
        "label": "mapping(uint256 => struct FootballGame.Player)",
        "numberOfBytes": "32",
        "value": "t_struct(Player)173_storage"
      },
      "t_string_storage": {
        "encoding": "bytes",
        "label": "string",
        "numberOfBytes": "32"
      },
      "t_struct(Game)102_storage": {
        "encoding": "inplace",
        "label": "struct FootballGame.Game",
        "members": [
          {
            "astId": 87,
            "contract": "contracts/FootballGame.sol:FootballGame",
            "label": "challenger",
            "offset": 0,
            "slot": "0",
            "type": "t_address"
          },
          {
            "astId": 89,
            "contract": "contracts/FootballGame.sol:FootballGame",
            "label": "opponent",
            "offset": 0,
            "slot": "1",
            "type": "t_address"
          },
          {
            "astId": 91,
            "contract": "contracts/FootballGame.sol:FootballGame",
            "label": "wagerAmount",
            "offset": 0,
            "slot": "2",
            "type": "t_uint256"
          },
          {
            "astId": 94,
            "contract": "contracts/FootballGame.sol:FootballGame",
            "label": "challengerFormation",
            "offset": 0,
            "slot": "3",
            "type": "t_array(t_uint256)dyn_storage"
          },
          {
            "astId": 97,
            "contract": "contracts/FootballGame.sol:FootballGame",
            "label": "opponentFormation",
            "offset": 0,
            "slot": "4",
            "type": "t_array(t_uint256)dyn_storage"
          },
          {
            "astId": 99,
            "contract": "contracts/FootballGame.sol:FootballGame",
            "label": "isFinished",
            "offset": 0,
            "slot": "5",
            "type": "t_bool"
          },
          {
            "astId": 101,
            "contract": "contracts/FootballGame.sol:FootballGame",
            "label": "result",
            "offset": 0,
            "slot": "6",
            "type": "t_string_storage"
          }
        ],
        "numberOfBytes": "224"
      },
      "t_struct(GameResult)113_storage": {
        "encoding": "inplace",
        "label": "struct FootballGame.GameResult",
        "members": [
          {
            "astId": 104,
            "contract": "contracts/FootballGame.sol:FootballGame",
            "label": "goalsHomeTeam",
            "offset": 0,
            "slot": "0",
            "type": "t_uint256"
          },
          {
            "astId": 106,
            "contract": "contracts/FootballGame.sol:FootballGame",
            "label": "goalsAwayTeam",
            "offset": 0,
            "slot": "1",
            "type": "t_uint256"
          },
          {
            "astId": 109,
            "contract": "contracts/FootballGame.sol:FootballGame",
            "label": "goalScorersHome",
            "offset": 0,
            "slot": "2",
            "type": "t_array(t_uint256)dyn_storage"
          },
          {
            "astId": 112,
            "contract": "contracts/FootballGame.sol:FootballGame",
            "label": "goalScorersAway",
            "offset": 0,
            "slot": "3",
            "type": "t_array(t_uint256)dyn_storage"
          }
        ],
        "numberOfBytes": "128"
      },
      "t_struct(Player)173_storage": {
        "encoding": "inplace",
        "label": "struct FootballGame.Player",
        "members": [
          {
            "astId": 154,
            "contract": "contracts/FootballGame.sol:FootballGame",
            "label": "player_id",
            "offset": 0,
            "slot": "0",
            "type": "t_uint256"
          },
          {
            "astId": 156,
            "contract": "contracts/FootballGame.sol:FootballGame",
            "label": "team_id",
            "offset": 0,
            "slot": "1",
            "type": "t_uint256"
          },
          {
            "astId": 158,
            "contract": "contracts/FootballGame.sol:FootballGame",
            "label": "position",
            "offset": 0,
            "slot": "2",
            "type": "t_uint256"
          },
          {
            "astId": 160,
            "contract": "contracts/FootballGame.sol:FootballGame",
            "label": "attack",
            "offset": 0,
            "slot": "3",
            "type": "t_uint128"
          },
          {
            "astId": 162,
            "contract": "contracts/FootballGame.sol:FootballGame",
            "label": "defense",
            "offset": 16,
            "slot": "3",
            "type": "t_uint128"
          },
          {
            "astId": 164,
            "contract": "contracts/FootballGame.sol:FootballGame",
            "label": "speed",
            "offset": 0,
            "slot": "4",
            "type": "t_uint128"
          },
          {
            "astId": 166,
            "contract": "contracts/FootballGame.sol:FootballGame",
            "label": "power",
            "offset": 16,
            "slot": "4",
            "type": "t_uint128"
          },
          {
            "astId": 168,
            "contract": "contracts/FootballGame.sol:FootballGame",
            "label": "stamina",
            "offset": 0,
            "slot": "5",
            "type": "t_uint128"
          },
          {
            "astId": 170,
            "contract": "contracts/FootballGame.sol:FootballGame",
            "label": "technique",
            "offset": 16,
            "slot": "5",
            "type": "t_uint128"
          },
          {
            "astId": 172,
            "contract": "contracts/FootballGame.sol:FootballGame",
            "label": "goalkeeping",
            "offset": 0,
            "slot": "6",
            "type": "t_uint128"
          }
        ],
        "numberOfBytes": "224"
      },
      "t_uint128": {
        "encoding": "inplace",
        "label": "uint128",
        "numberOfBytes": "16"
      },
      "t_uint256": {
        "encoding": "inplace",
        "label": "uint256",
        "numberOfBytes": "32"
      }
    }
  }
}