{
  "address": "0xab2EE87906222B433AF6836b1f1588b79294f67e",
  "abi": [
    {
      "inputs": [
        {
          "internalType": "contract IERC20",
          "name": "_footballCoin",
          "type": "address"
        }
      ],
      "stateMutability": "nonpayable",
      "type": "constructor"
    },
    {
      "anonymous": false,
      "inputs": [
        {
          "indexed": false,
          "internalType": "uint256",
          "name": "gameId",
          "type": "uint256"
        },
        {
          "indexed": true,
          "internalType": "address",
          "name": "opponent",
          "type": "address"
        },
        {
          "indexed": false,
          "internalType": "uint256",
          "name": "wagerAmount",
          "type": "uint256"
        }
      ],
      "name": "GameAccepted",
      "type": "event"
    },
    {
      "anonymous": false,
      "inputs": [
        {
          "indexed": false,
          "internalType": "uint256",
          "name": "gameId",
          "type": "uint256"
        }
      ],
      "name": "GameFinished",
      "type": "event"
    },
    {
      "anonymous": false,
      "inputs": [
        {
          "indexed": false,
          "internalType": "uint256",
          "name": "gameId",
          "type": "uint256"
        },
        {
          "indexed": true,
          "internalType": "address",
          "name": "challenger",
          "type": "address"
        },
        {
          "indexed": true,
          "internalType": "address",
          "name": "opponent",
          "type": "address"
        },
        {
          "indexed": false,
          "internalType": "uint256",
          "name": "wagerAmount",
          "type": "uint256"
        }
      ],
      "name": "GameProposed",
      "type": "event"
    },
    {
      "inputs": [
        {
          "internalType": "uint256",
          "name": "gameId",
          "type": "uint256"
        },
        {
          "internalType": "uint256[]",
          "name": "formation",
          "type": "uint256[]"
        }
      ],
      "name": "acceptGame",
      "outputs": [],
      "stateMutability": "nonpayable",
      "type": "function"
    },
    {
      "inputs": [
        {
          "internalType": "uint256",
          "name": "playerId",
          "type": "uint256"
        },
        {
          "internalType": "uint256",
          "name": "teamId",
          "type": "uint256"
        },
        {
          "internalType": "uint256",
          "name": "position",
          "type": "uint256"
        },
        {
          "internalType": "uint128",
          "name": "attack",
          "type": "uint128"
        },
        {
          "internalType": "uint128",
          "name": "defense",
          "type": "uint128"
        },
        {
          "internalType": "uint128",
          "name": "speed",
          "type": "uint128"
        },
        {
          "internalType": "uint128",
          "name": "power",
          "type": "uint128"
        },
        {
          "internalType": "uint128",
          "name": "stamina",
          "type": "uint128"
        },
        {
          "internalType": "uint128",
          "name": "technique",
          "type": "uint128"
        },
        {
          "internalType": "uint128",
          "name": "goalkeeping",
          "type": "uint128"
        }
      ],
      "name": "addPlayer",
      "outputs": [],
      "stateMutability": "nonpayable",
      "type": "function"
    },
    {
      "inputs": [
        {
          "internalType": "uint256",
          "name": "numberOfValues",
          "type": "uint256"
        },
        {
          "internalType": "bytes32",
          "name": "prevRandao",
          "type": "bytes32"
        }
      ],
      "name": "extractRandomValues",
      "outputs": [
        {
          "internalType": "uint256[]",
          "name": "",
          "type": "uint256[]"
        }
      ],
      "stateMutability": "pure",
      "type": "function"
    },
    {
      "inputs": [],
      "name": "footballCoin",
      "outputs": [
        {
          "internalType": "contract IERC20",
          "name": "",
          "type": "address"
        }
      ],
      "stateMutability": "view",
      "type": "function"
    },
    {
      "inputs": [],
      "name": "gameCount",
      "outputs": [
        {
          "internalType": "uint256",
          "name": "",
          "type": "uint256"
        }
      ],
      "stateMutability": "view",
      "type": "function"
    },
    {
      "inputs": [
        {
          "internalType": "uint256",
          "name": "",
          "type": "uint256"
        }
      ],
      "name": "gameResults",
      "outputs": [
        {
          "internalType": "uint256",
          "name": "goalsHomeTeam",
          "type": "uint256"
        },
        {
          "internalType": "uint256",
          "name": "goalsAwayTeam",
          "type": "uint256"
        }
      ],
      "stateMutability": "view",
      "type": "function"
    },
    {
      "inputs": [
        {
          "internalType": "uint256",
          "name": "",
          "type": "uint256"
        }
      ],
      "name": "games",
      "outputs": [
        {
          "internalType": "address",
          "name": "challenger",
          "type": "address"
        },
        {
          "internalType": "address",
          "name": "opponent",
          "type": "address"
        },
        {
          "internalType": "uint256",
          "name": "wagerAmount",
          "type": "uint256"
        },
        {
          "internalType": "bool",
          "name": "isFinished",
          "type": "bool"
        },
        {
          "internalType": "string",
          "name": "result",
          "type": "string"
        }
      ],
      "stateMutability": "view",
      "type": "function"
    },
    {
      "inputs": [],
      "name": "owner",
      "outputs": [
        {
          "internalType": "address",
          "name": "",
          "type": "address"
        }
      ],
      "stateMutability": "view",
      "type": "function"
    },
    {
      "inputs": [
        {
          "internalType": "uint256",
          "name": "",
          "type": "uint256"
        }
      ],
      "name": "players",
      "outputs": [
        {
          "internalType": "uint256",
          "name": "player_id",
          "type": "uint256"
        },
        {
          "internalType": "uint256",
          "name": "team_id",
          "type": "uint256"
        },
        {
          "internalType": "uint256",
          "name": "position",
          "type": "uint256"
        },
        {
          "internalType": "uint128",
          "name": "attack",
          "type": "uint128"
        },
        {
          "internalType": "uint128",
          "name": "defense",
          "type": "uint128"
        },
        {
          "internalType": "uint128",
          "name": "speed",
          "type": "uint128"
        },
        {
          "internalType": "uint128",
          "name": "power",
          "type": "uint128"
        },
        {
          "internalType": "uint128",
          "name": "stamina",
          "type": "uint128"
        },
        {
          "internalType": "uint128",
          "name": "technique",
          "type": "uint128"
        },
        {
          "internalType": "uint128",
          "name": "goalkeeping",
          "type": "uint128"
        }
      ],
      "stateMutability": "view",
      "type": "function"
    },
    {
      "inputs": [
        {
          "internalType": "address",
          "name": "opponent",
          "type": "address"
        },
        {
          "internalType": "uint256",
          "name": "wagerAmount",
          "type": "uint256"
        },
        {
          "internalType": "uint256[]",
          "name": "formation",
          "type": "uint256[]"
        }
      ],
      "name": "proposeGame",
      "outputs": [],
      "stateMutability": "nonpayable",
      "type": "function"
    },
    {
      "inputs": [
        {
          "internalType": "uint256",
          "name": "gameId",
          "type": "uint256"
        }
      ],
      "name": "revealOutcome",
      "outputs": [],
      "stateMutability": "nonpayable",
      "type": "function"
    }
  ],
  "transactionHash": "0x46ef75a41e7edb61b647861d698f45149f76a5abbcc6a02501a18ee22f1a1113",
  "args": [
    "0xbb1DF1ab33786Ac6B91d9D16b445c7b66825979e"
  ],
  "numDeployments": 2,
  "solcInputHash": "508ebc1c6b694b6e6cf55fc157587439",
  "bytecode": "0x608060405234801561001057600080fd5b5060405161191238038061191283398101604081905261002f91610062565b60008054336001600160a01b031991821617909155600180549091166001600160a01b0392909216919091179055610092565b60006020828403121561007457600080fd5b81516001600160a01b038116811461008b57600080fd5b9392505050565b611871806100a16000396000f3fe608060405234801561001057600080fd5b50600436106100a95760003560e01c806364407bad1161007157806364407bad1461013a5780638da5cb5b14610165578063cd86f81014610178578063cfb947981461018b578063f71d96cb1461019e578063fdba1b7c1461027257600080fd5b8063117a5b90146100ae5780634d1975b4146100db578063506d7e2d146100f257806352bab1c91461010757806359c892a914610127575b600080fd5b6100c16100bc3660046112c6565b6102ae565b6040516100d29594939291906112df565b60405180910390f35b6100e460055481565b6040519081526020016100d2565b610105610100366004611375565b610378565b005b61011a61011536600461141a565b6104c1565b6040516100d2919061143c565b610105610135366004611531565b6105ca565b60015461014d906001600160a01b031681565b6040516001600160a01b0390911681526020016100d2565b60005461014d906001600160a01b031681565b610105610186366004611578565b6107ea565b6101056101993660046112c6565b610af7565b6102156101ac3660046112c6565b600660208190526000918252604090912080546001820154600283015460038401546004850154600586015495909601549395929491936001600160801b0380831694600160801b9384900482169481831694918290048316938184169392909104821691168a565b604080519a8b5260208b0199909952978901969096526001600160801b039485166060890152928416608088015290831660a0870152821660c0860152811660e085015290811661010084015216610120820152610140016100d2565b6102996102803660046112c6565b6004602052600090815260409020805460019091015482565b604080519283526020830191909152016100d2565b600360205260009081526040902080546001820154600283015460058401546006850180546001600160a01b03958616969490951694929360ff909216926102f5906115dd565b80601f0160208091040260200160405190810160405280929190818152602001828054610321906115dd565b801561036e5780601f106103435761010080835404028352916020019161036e565b820191906000526020600020905b81548152906001019060200180831161035157829003601f168201915b5050505050905085565b6000546001600160a01b031633146103d75760405162461bcd60e51b815260206004820152601760248201527f43616c6c6572206973206e6f7420746865206f776e657200000000000000000060448201526064015b60405180910390fd5b60408051610140810182528b815260208082019b8c528183019a8b526001600160801b03998a1660608301908152988a1660808301908152978a1660a08301908152968a1660c08301908152958a1660e08301908152948a166101008301908152938a16610120830190815260009d8e5260069182905292909c2090518155995160018b0155975160028a015594519351938616600160801b94871685021760038901559151905190851690851683021760048701555191519183169183160217600584015590519190920180546fffffffffffffffffffffffffffffffff191691909216179055565b6060600083116105235760405162461bcd60e51b815260206004820152602760248201527f4e756d626572206f662076616c756573206d75737420626520677265617465726044820152660207468616e20360cc1b60648201526084016103ce565b60008367ffffffffffffffff81111561053e5761053e611480565b604051908082528060200260200182016040528015610567578160200160208202803683370190505b5090508260005b858110156105be5761058160648361162d565b83828151811061059357610593611641565b60209081029190910101526105aa6101008361166d565b9150806105b681611681565b91505061056e565b50909150505b92915050565b600082815260036020526040902060018101546001600160a01b031633146106425760405162461bcd60e51b815260206004820152602560248201527f4f6e6c7920746865206f70706f6e656e742063616e20616363657074207468656044820152642067616d6560d81b60648201526084016103ce565b6002810154600154604051636eb1769f60e11b81523360048201523060248201526001600160a01b039091169063dd62ed3e90604401602060405180830381865afa158015610695573d6000803e3d6000fd5b505050506040513d601f19601f820116820180604052508101906106b9919061169a565b10156107075760405162461bcd60e51b815260206004820181905260248201527f496e73756666696369656e7420616c6c6f77616e636520666f7220776167657260448201526064016103ce565b60015460028201546040516323b872dd60e01b815233600482015230602482015260448101919091526001600160a01b03909116906323b872dd906064016020604051808303816000875af1158015610764573d6000803e3d6000fd5b505050506040513d601f19601f8201168201806040525081019061078891906116b3565b50815161079e9060048301906020850190611226565b50600281015460405133917fc12989f4ffb898af45d9bec31ea6e4b22af6acc72ca98399ca9a866e72c954f8916107dd91878252602082015260400190565b60405180910390a2505050565b600154604051636eb1769f60e11b815233600482015230602482015283916001600160a01b03169063dd62ed3e90604401602060405180830381865afa158015610838573d6000803e3d6000fd5b505050506040513d601f19601f8201168201806040525081019061085c919061169a565b10156108aa5760405162461bcd60e51b815260206004820181905260248201527f496e73756666696369656e7420616c6c6f77616e636520666f7220776167657260448201526064016103ce565b6001546040516323b872dd60e01b8152336004820152306024820152604481018490526001600160a01b03909116906323b872dd906064016020604051808303816000875af1158015610901573d6000803e3d6000fd5b505050506040513d601f19601f8201168201806040525081019061092591906116b3565b50600060056000815461093790611681565b91829055506040805160e0810182523381526001600160a01b0387166020820152908101859052909150606081016000604051908082528060200260200182016040528015610990578160200160208202803683370190505b50815260200160006040519080825280602002602001820160405280156109c1578160200160208202803683370190505b5081526000602080830182905260408051808301825283815293810193909352848252600380825291839020845181546001600160a01b039182166001600160a01b03199182161783558684015160018401805491909316911617905592840151600284015560608401518051610a3f938501929190910190611226565b5060808201518051610a5b916004840191602090910190611226565b5060a082015160058201805460ff191691151591909117905560c08201516006820190610a88908261172a565b50505060008181526002602090815260409091208351610aaa92850190611226565b5060408051828152602081018590526001600160a01b0386169133917f92ed5225f997614241753c97f8dff081ab07610d11f06f0c031e4421679af13f910160405180910390a350505050565b600081815260036020526040902080546001600160a01b03163314610b715760405162461bcd60e51b815260206004820152602a60248201527f4f6e6c7920746865206368616c6c656e6765722063616e2072657665616c20746044820152696865206f7574636f6d6560b01b60648201526084016103ce565b600581015460ff1615610bc65760405162461bcd60e51b815260206004820152601c60248201527f5468652067616d6520697320616c72656164792066696e69736865640000000060448201526064016103ce565b60008281526002602052604090208054610be4916003840191611271565b506000610bf082610c6f565b60008481526004602090815260408220835181559083015160019182015560058501805460ff19169091179055909150610c2a8383610f53565b9050610c368382610fa0565b6040518481527f6543ec12c6e53f26532beb5289ef5732dcd77c2e9e9921ae42b695905f5e84c09060200160405180910390a150505050565b604080518082019091526000808252602082015260408051808201909152600080825260208201819052610ca46001436117ea565b4090506000610cb4600a836104c1565b905060015b6003860154811015610f4957600060066000886003018481548110610ce057610ce0611641565b600091825260208083209091015483528281019390935260409182018120825161014081018452815481526001820154948101949094526002810154928401929092526003808301546001600160801b038082166060870152600160801b918290048116608087015260048086015480831660a0890152839004821660c0880152600586015480831660e089015292909204811661010087015260069485015416610120860152908b0154939450909283918b0190610da09087906117ea565b81548110610db057610db0611641565b6000918252602080832090910154835282810193909352604091820181208251610140810184528154815260018201549481019490945260028101549284019290925260038201546001600160801b038082166060860152600160801b9182900481166080860152600484015480821660a080880182905291849004831660c0880152600586015480841660e0890152939093048216610100870152600690940154166101208501529185015192935091610e6b91906117fd565b6001600160801b031690506000610e82828861162d565b9050808460a001516001600160801b03161115610ee65785610ea56001876117ea565b81518110610eb557610eb5611641565b602002602001015184606001516001600160801b03161115610ee157875188610edd82611681565b9052505b610f32565b85610ef26001876117ea565b81518110610f0257610f02611641565b602002602001015183606001516001600160801b03161115610f325760208801805190610f2e82611681565b9052505b505050508080610f4190611681565b915050610cb9565b5091949350505050565b6000816020015182600001511115610f76575081546001600160a01b03166105c4565b602082015182511015610f97575060018201546001600160a01b03166105c4565b50600092915050565b6001600160a01b038116611149576001548254600284015460405163a9059cbb60e01b81526001600160a01b039283166004820152602481019190915291169063a9059cbb906044016020604051808303816000875af1158015611008573d6000803e3d6000fd5b505050506040513d601f19601f8201168201806040525081019061102c91906116b3565b6110785760405162461bcd60e51b815260206004820152601b60248201527f526566756e6420746f206368616c6c656e676572206661696c6564000000000060448201526064016103ce565b6001805490830154600284015460405163a9059cbb60e01b81526001600160a01b039283166004820152602481019190915291169063a9059cbb906044016020604051808303816000875af11580156110d5573d6000803e3d6000fd5b505050506040513d601f19601f820116820180604052508101906110f991906116b3565b6111455760405162461bcd60e51b815260206004820152601960248201527f526566756e6420746f206f70706f6e656e74206661696c65640000000000000060448201526064016103ce565b5050565b60008260020154600261115c9190611824565b60015460405163a9059cbb60e01b81526001600160a01b0385811660048301526024820184905292935091169063a9059cbb906044016020604051808303816000875af11580156111b1573d6000803e3d6000fd5b505050506040513d601f19601f820116820180604052508101906111d591906116b3565b6112215760405162461bcd60e51b815260206004820152601960248201527f5472616e7366657220746f2077696e6e6572206661696c65640000000000000060448201526064016103ce565b505050565b828054828255906000526020600020908101928215611261579160200282015b82811115611261578251825591602001919060010190611246565b5061126d9291506112b1565b5090565b8280548282559060005260206000209081019282156112615760005260206000209182015b82811115611261578254825591600101919060010190611296565b5b8082111561126d57600081556001016112b2565b6000602082840312156112d857600080fd5b5035919050565b600060018060a01b038088168352602081881681850152866040850152851515606085015260a06080850152845191508160a085015260005b828110156113345785810182015185820160c001528101611318565b5050600060c0828501015260c0601f19601f8301168401019150509695505050505050565b80356001600160801b038116811461137057600080fd5b919050565b6000806000806000806000806000806101408b8d03121561139557600080fd5b8a35995060208b0135985060408b013597506113b360608c01611359565b96506113c160808c01611359565b95506113cf60a08c01611359565b94506113dd60c08c01611359565b93506113eb60e08c01611359565b92506113fa6101008c01611359565b91506114096101208c01611359565b90509295989b9194979a5092959850565b6000806040838503121561142d57600080fd5b50508035926020909101359150565b6020808252825182820181905260009190848201906040850190845b8181101561147457835183529284019291840191600101611458565b50909695505050505050565b634e487b7160e01b600052604160045260246000fd5b600082601f8301126114a757600080fd5b8135602067ffffffffffffffff808311156114c4576114c4611480565b8260051b604051601f19603f830116810181811084821117156114e9576114e9611480565b60405293845285810183019383810192508785111561150757600080fd5b83870191505b848210156115265781358352918301919083019061150d565b979650505050505050565b6000806040838503121561154457600080fd5b82359150602083013567ffffffffffffffff81111561156257600080fd5b61156e85828601611496565b9150509250929050565b60008060006060848603121561158d57600080fd5b83356001600160a01b03811681146115a457600080fd5b925060208401359150604084013567ffffffffffffffff8111156115c757600080fd5b6115d386828701611496565b9150509250925092565b600181811c908216806115f157607f821691505b60208210810361161157634e487b7160e01b600052602260045260246000fd5b50919050565b634e487b7160e01b600052601260045260246000fd5b60008261163c5761163c611617565b500690565b634e487b7160e01b600052603260045260246000fd5b634e487b7160e01b600052601160045260246000fd5b60008261167c5761167c611617565b500490565b60006001820161169357611693611657565b5060010190565b6000602082840312156116ac57600080fd5b5051919050565b6000602082840312156116c557600080fd5b815180151581146116d557600080fd5b9392505050565b601f82111561122157600081815260208120601f850160051c810160208610156117035750805b601f850160051c820191505b818110156117225782815560010161170f565b505050505050565b815167ffffffffffffffff81111561174457611744611480565b6117588161175284546115dd565b846116dc565b602080601f83116001811461178d57600084156117755750858301515b600019600386901b1c1916600185901b178555611722565b600085815260208120601f198616915b828110156117bc5788860151825594840194600190910190840161179d565b50858210156117da5787850151600019600388901b60f8161c191681555b5050505050600190811b01905550565b818103818111156105c4576105c4611657565b6001600160801b0381811683821601908082111561181d5761181d611657565b5092915050565b80820281158282048414176105c4576105c461165756fea2646970667358221220777e9fd4bf8c60abb2d206cf9bec9e739908664cbd578f04394010963f4daec464736f6c63430008110033",
  "devdoc": {
    "kind": "dev",
    "methods": {},
    "version": 1
  },
  "userdoc": {
    "kind": "user",
    "methods": {},
    "version": 1
  },
  "storageLayout": {
    "storage": [
      {
        "astId": 82,
        "contract": "contracts/FootballGame.sol:FootballGame",
        "label": "owner",
        "offset": 0,
        "slot": "0",
        "type": "t_address"
      },
      {
        "astId": 85,
        "contract": "contracts/FootballGame.sol:FootballGame",
        "label": "footballCoin",
        "offset": 0,
        "slot": "1",
        "type": "t_contract(IERC20)77"
      },
      {
        "astId": 112,
        "contract": "contracts/FootballGame.sol:FootballGame",
        "label": "challenger_formation",
        "offset": 0,
        "slot": "2",
        "type": "t_mapping(t_uint256,t_array(t_uint256)dyn_storage)"
      },
      {
        "astId": 117,
        "contract": "contracts/FootballGame.sol:FootballGame",
        "label": "games",
        "offset": 0,
        "slot": "3",
        "type": "t_mapping(t_uint256,t_struct(Game)102_storage)"
      },
      {
        "astId": 122,
        "contract": "contracts/FootballGame.sol:FootballGame",
        "label": "gameResults",
        "offset": 0,
        "slot": "4",
        "type": "t_mapping(t_uint256,t_struct(GameResult)107_storage)"
      },
      {
        "astId": 124,
        "contract": "contracts/FootballGame.sol:FootballGame",
        "label": "gameCount",
        "offset": 0,
        "slot": "5",
        "type": "t_uint256"
      },
      {
        "astId": 172,
        "contract": "contracts/FootballGame.sol:FootballGame",
        "label": "players",
        "offset": 0,
        "slot": "6",
        "type": "t_mapping(t_uint256,t_struct(Player)167_storage)"
      }
    ],
    "types": {
      "t_address": {
        "encoding": "inplace",
        "label": "address",
        "numberOfBytes": "20"
      },
      "t_array(t_uint256)dyn_storage": {
        "base": "t_uint256",
        "encoding": "dynamic_array",
        "label": "uint256[]",
        "numberOfBytes": "32"
      },
      "t_bool": {
        "encoding": "inplace",
        "label": "bool",
        "numberOfBytes": "1"
      },
      "t_contract(IERC20)77": {
        "encoding": "inplace",
        "label": "contract IERC20",
        "numberOfBytes": "20"
      },
      "t_mapping(t_uint256,t_array(t_uint256)dyn_storage)": {
        "encoding": "mapping",
        "key": "t_uint256",
        "label": "mapping(uint256 => uint256[])",
        "numberOfBytes": "32",
        "value": "t_array(t_uint256)dyn_storage"
      },
      "t_mapping(t_uint256,t_struct(Game)102_storage)": {
        "encoding": "mapping",
        "key": "t_uint256",
        "label": "mapping(uint256 => struct FootballGame.Game)",
        "numberOfBytes": "32",
        "value": "t_struct(Game)102_storage"
      },
      "t_mapping(t_uint256,t_struct(GameResult)107_storage)": {
        "encoding": "mapping",
        "key": "t_uint256",
        "label": "mapping(uint256 => struct FootballGame.GameResult)",
        "numberOfBytes": "32",
        "value": "t_struct(GameResult)107_storage"
      },
      "t_mapping(t_uint256,t_struct(Player)167_storage)": {
        "encoding": "mapping",
        "key": "t_uint256",
        "label": "mapping(uint256 => struct FootballGame.Player)",
        "numberOfBytes": "32",
        "value": "t_struct(Player)167_storage"
      },
      "t_string_storage": {
        "encoding": "bytes",
        "label": "string",
        "numberOfBytes": "32"
      },
      "t_struct(Game)102_storage": {
        "encoding": "inplace",
        "label": "struct FootballGame.Game",
        "members": [
          {
            "astId": 87,
            "contract": "contracts/FootballGame.sol:FootballGame",
            "label": "challenger",
            "offset": 0,
            "slot": "0",
            "type": "t_address"
          },
          {
            "astId": 89,
            "contract": "contracts/FootballGame.sol:FootballGame",
            "label": "opponent",
            "offset": 0,
            "slot": "1",
            "type": "t_address"
          },
          {
            "astId": 91,
            "contract": "contracts/FootballGame.sol:FootballGame",
            "label": "wagerAmount",
            "offset": 0,
            "slot": "2",
            "type": "t_uint256"
          },
          {
            "astId": 94,
            "contract": "contracts/FootballGame.sol:FootballGame",
            "label": "challengerFormation",
            "offset": 0,
            "slot": "3",
            "type": "t_array(t_uint256)dyn_storage"
          },
          {
            "astId": 97,
            "contract": "contracts/FootballGame.sol:FootballGame",
            "label": "opponentFormation",
            "offset": 0,
            "slot": "4",
            "type": "t_array(t_uint256)dyn_storage"
          },
          {
            "astId": 99,
            "contract": "contracts/FootballGame.sol:FootballGame",
            "label": "isFinished",
            "offset": 0,
            "slot": "5",
            "type": "t_bool"
          },
          {
            "astId": 101,
            "contract": "contracts/FootballGame.sol:FootballGame",
            "label": "result",
            "offset": 0,
            "slot": "6",
            "type": "t_string_storage"
          }
        ],
        "numberOfBytes": "224"
      },
      "t_struct(GameResult)107_storage": {
        "encoding": "inplace",
        "label": "struct FootballGame.GameResult",
        "members": [
          {
            "astId": 104,
            "contract": "contracts/FootballGame.sol:FootballGame",
            "label": "goalsHomeTeam",
            "offset": 0,
            "slot": "0",
            "type": "t_uint256"
          },
          {
            "astId": 106,
            "contract": "contracts/FootballGame.sol:FootballGame",
            "label": "goalsAwayTeam",
            "offset": 0,
            "slot": "1",
            "type": "t_uint256"
          }
        ],
        "numberOfBytes": "64"
      },
      "t_struct(Player)167_storage": {
        "encoding": "inplace",
        "label": "struct FootballGame.Player",
        "members": [
          {
            "astId": 148,
            "contract": "contracts/FootballGame.sol:FootballGame",
            "label": "player_id",
            "offset": 0,
            "slot": "0",
            "type": "t_uint256"
          },
          {
            "astId": 150,
            "contract": "contracts/FootballGame.sol:FootballGame",
            "label": "team_id",
            "offset": 0,
            "slot": "1",
            "type": "t_uint256"
          },
          {
            "astId": 152,
            "contract": "contracts/FootballGame.sol:FootballGame",
            "label": "position",
            "offset": 0,
            "slot": "2",
            "type": "t_uint256"
          },
          {
            "astId": 154,
            "contract": "contracts/FootballGame.sol:FootballGame",
            "label": "attack",
            "offset": 0,
            "slot": "3",
            "type": "t_uint128"
          },
          {
            "astId": 156,
            "contract": "contracts/FootballGame.sol:FootballGame",
            "label": "defense",
            "offset": 16,
            "slot": "3",
            "type": "t_uint128"
          },
          {
            "astId": 158,
            "contract": "contracts/FootballGame.sol:FootballGame",
            "label": "speed",
            "offset": 0,
            "slot": "4",
            "type": "t_uint128"
          },
          {
            "astId": 160,
            "contract": "contracts/FootballGame.sol:FootballGame",
            "label": "power",
            "offset": 16,
            "slot": "4",
            "type": "t_uint128"
          },
          {
            "astId": 162,
            "contract": "contracts/FootballGame.sol:FootballGame",
            "label": "stamina",
            "offset": 0,
            "slot": "5",
            "type": "t_uint128"
          },
          {
            "astId": 164,
            "contract": "contracts/FootballGame.sol:FootballGame",
            "label": "technique",
            "offset": 16,
            "slot": "5",
            "type": "t_uint128"
          },
          {
            "astId": 166,
            "contract": "contracts/FootballGame.sol:FootballGame",
            "label": "goalkeeping",
            "offset": 0,
            "slot": "6",
            "type": "t_uint128"
          }
        ],
        "numberOfBytes": "224"
      },
      "t_uint128": {
        "encoding": "inplace",
        "label": "uint128",
        "numberOfBytes": "16"
      },
      "t_uint256": {
        "encoding": "inplace",
        "label": "uint256",
        "numberOfBytes": "32"
      }
    }
  }
}