{
  "_format": "hh-sol-artifact-1",
  "contractName": "FootballGame",
  "sourceName": "contracts/FootballGame.sol",
  "abi": [
    {
      "inputs": [
        {
          "internalType": "contract IERC20",
          "name": "_footballCoin",
          "type": "address"
        },
        {
          "internalType": "uint256",
          "name": "_timelockBlocks",
          "type": "uint256"
        }
      ],
      "stateMutability": "nonpayable",
      "type": "constructor"
    },
    {
      "anonymous": false,
      "inputs": [
        {
          "indexed": false,
          "internalType": "uint256",
          "name": "gameId",
          "type": "uint256"
        },
        {
          "indexed": true,
          "internalType": "address",
          "name": "sender",
          "type": "address"
        },
        {
          "indexed": true,
          "internalType": "address",
          "name": "recipient",
          "type": "address"
        },
        {
          "indexed": false,
          "internalType": "uint256",
          "name": "wagerAmount",
          "type": "uint256"
        },
        {
          "indexed": false,
          "internalType": "uint256",
          "name": "blockNumber",
          "type": "uint256"
        }
      ],
      "name": "GameAccepted",
      "type": "event"
    },
    {
      "anonymous": false,
      "inputs": [
        {
          "indexed": false,
          "internalType": "uint256",
          "name": "gameId",
          "type": "uint256"
        },
        {
          "indexed": true,
          "internalType": "address",
          "name": "sender",
          "type": "address"
        },
        {
          "indexed": true,
          "internalType": "address",
          "name": "recipient",
          "type": "address"
        }
      ],
      "name": "GameFinished",
      "type": "event"
    },
    {
      "anonymous": false,
      "inputs": [
        {
          "indexed": false,
          "internalType": "uint256",
          "name": "gameId",
          "type": "uint256"
        },
        {
          "indexed": true,
          "internalType": "address",
          "name": "sender",
          "type": "address"
        },
        {
          "indexed": true,
          "internalType": "address",
          "name": "recipient",
          "type": "address"
        }
      ],
      "name": "GameFinishedByTimelock",
      "type": "event"
    },
    {
      "anonymous": false,
      "inputs": [
        {
          "indexed": false,
          "internalType": "uint256",
          "name": "gameId",
          "type": "uint256"
        },
        {
          "indexed": true,
          "internalType": "address",
          "name": "sender",
          "type": "address"
        },
        {
          "indexed": true,
          "internalType": "address",
          "name": "recipient",
          "type": "address"
        },
        {
          "indexed": false,
          "internalType": "uint256",
          "name": "wagerAmount",
          "type": "uint256"
        },
        {
          "indexed": false,
          "internalType": "uint256",
          "name": "blockNumber",
          "type": "uint256"
        }
      ],
      "name": "GameProposed",
      "type": "event"
    },
    {
      "inputs": [
        {
          "internalType": "uint256",
          "name": "gameId",
          "type": "uint256"
        },
        {
          "internalType": "uint256[]",
          "name": "formation",
          "type": "uint256[]"
        }
      ],
      "name": "acceptGame",
      "outputs": [],
      "stateMutability": "nonpayable",
      "type": "function"
    },
    {
      "inputs": [
        {
          "internalType": "uint256",
          "name": "playerId",
          "type": "uint256"
        },
        {
          "internalType": "uint256",
          "name": "teamId",
          "type": "uint256"
        },
        {
          "internalType": "uint256",
          "name": "position",
          "type": "uint256"
        },
        {
          "internalType": "uint128",
          "name": "attack",
          "type": "uint128"
        },
        {
          "internalType": "uint128",
          "name": "defense",
          "type": "uint128"
        },
        {
          "internalType": "uint128",
          "name": "speed",
          "type": "uint128"
        },
        {
          "internalType": "uint128",
          "name": "power",
          "type": "uint128"
        },
        {
          "internalType": "uint128",
          "name": "stamina",
          "type": "uint128"
        },
        {
          "internalType": "uint128",
          "name": "technique",
          "type": "uint128"
        },
        {
          "internalType": "uint128",
          "name": "goalkeeping",
          "type": "uint128"
        }
      ],
      "name": "addPlayer",
      "outputs": [],
      "stateMutability": "nonpayable",
      "type": "function"
    },
    {
      "inputs": [],
      "name": "footballCoin",
      "outputs": [
        {
          "internalType": "contract IERC20",
          "name": "",
          "type": "address"
        }
      ],
      "stateMutability": "view",
      "type": "function"
    },
    {
      "inputs": [],
      "name": "gameCount",
      "outputs": [
        {
          "internalType": "uint256",
          "name": "",
          "type": "uint256"
        }
      ],
      "stateMutability": "view",
      "type": "function"
    },
    {
      "inputs": [
        {
          "internalType": "uint256",
          "name": "",
          "type": "uint256"
        }
      ],
      "name": "games",
      "outputs": [
        {
          "internalType": "uint256",
          "name": "gameId",
          "type": "uint256"
        },
        {
          "internalType": "address",
          "name": "challenger",
          "type": "address"
        },
        {
          "internalType": "address",
          "name": "opponent",
          "type": "address"
        },
        {
          "internalType": "uint256",
          "name": "wagerAmount",
          "type": "uint256"
        },
        {
          "components": [
            {
              "internalType": "uint256",
              "name": "goalsHomeTeam",
              "type": "uint256"
            },
            {
              "internalType": "uint256",
              "name": "goalsAwayTeam",
              "type": "uint256"
            }
          ],
          "internalType": "struct FootballGame.GameResult",
          "name": "result",
          "type": "tuple"
        },
        {
          "internalType": "uint256",
          "name": "blockNumber",
          "type": "uint256"
        },
        {
          "internalType": "enum FootballGame.Status",
          "name": "status",
          "type": "uint8"
        }
      ],
      "stateMutability": "view",
      "type": "function"
    },
    {
      "inputs": [],
      "name": "getGameCount",
      "outputs": [
        {
          "internalType": "uint256",
          "name": "",
          "type": "uint256"
        }
      ],
      "stateMutability": "view",
      "type": "function"
    },
    {
      "inputs": [
        {
          "internalType": "uint256",
          "name": "gameId",
          "type": "uint256"
        }
      ],
      "name": "opponentClaimTimelock",
      "outputs": [],
      "stateMutability": "nonpayable",
      "type": "function"
    },
    {
      "inputs": [],
      "name": "owner",
      "outputs": [
        {
          "internalType": "address",
          "name": "",
          "type": "address"
        }
      ],
      "stateMutability": "view",
      "type": "function"
    },
    {
      "inputs": [
        {
          "internalType": "uint256",
          "name": "",
          "type": "uint256"
        }
      ],
      "name": "players",
      "outputs": [
        {
          "internalType": "uint256",
          "name": "player_id",
          "type": "uint256"
        },
        {
          "internalType": "uint256",
          "name": "team_id",
          "type": "uint256"
        },
        {
          "internalType": "uint256",
          "name": "position",
          "type": "uint256"
        },
        {
          "internalType": "uint128",
          "name": "attack",
          "type": "uint128"
        },
        {
          "internalType": "uint128",
          "name": "defense",
          "type": "uint128"
        },
        {
          "internalType": "uint128",
          "name": "speed",
          "type": "uint128"
        },
        {
          "internalType": "uint128",
          "name": "power",
          "type": "uint128"
        },
        {
          "internalType": "uint128",
          "name": "stamina",
          "type": "uint128"
        },
        {
          "internalType": "uint128",
          "name": "technique",
          "type": "uint128"
        },
        {
          "internalType": "uint128",
          "name": "goalkeeping",
          "type": "uint128"
        }
      ],
      "stateMutability": "view",
      "type": "function"
    },
    {
      "inputs": [
        {
          "internalType": "address",
          "name": "opponent",
          "type": "address"
        },
        {
          "internalType": "uint256",
          "name": "wagerAmount",
          "type": "uint256"
        },
        {
          "internalType": "uint256[]",
          "name": "formation",
          "type": "uint256[]"
        }
      ],
      "name": "proposeGame",
      "outputs": [],
      "stateMutability": "nonpayable",
      "type": "function"
    },
    {
      "inputs": [
        {
          "internalType": "uint256",
          "name": "gameId",
          "type": "uint256"
        }
      ],
      "name": "revealOutcome",
      "outputs": [],
      "stateMutability": "nonpayable",
      "type": "function"
    },
    {
      "inputs": [],
      "name": "timelockBlocks",
      "outputs": [
        {
          "internalType": "uint256",
          "name": "",
          "type": "uint256"
        }
      ],
      "stateMutability": "view",
      "type": "function"
    }
  ],
  "bytecode": "0x608060405234801561001057600080fd5b506040516118df3803806118df83398101604081905261002f91610066565b60008054336001600160a01b031991821617909155600180549091166001600160a01b0393909316929092179091556002556100a0565b6000806040838503121561007957600080fd5b82516001600160a01b038116811461009057600080fd5b6020939093015192949293505050565b611830806100af6000396000f3fe608060405234801561001057600080fd5b50600436106100b45760003560e01c806394b1e5951161007157806394b1e595146101c4578063cd86f810146101d7578063cfb94798146101ea578063e87c0ee6146101fd578063f71d96cb14610205578063fda0f9a2146102d957600080fd5b8063117a5b90146100b95780634d1975b414610147578063506d7e2d1461015e57806359c892a91461017357806364407bad146101865780638da5cb5b146101b1575b600080fd5b61012b6100c736600461140b565b6004602090815260009182526040918290208054600182015460028301546003840154865180880190975260068501548752600785015495870195909552600884015460099094015492956001600160a01b03928316959190921693909260ff1687565b60405161013e979695949392919061143a565b60405180910390f35b61015060055481565b60405190815260200161013e565b61017161016c3660046114c7565b6102e2565b005b61017161018136600461161d565b61042b565b600154610199906001600160a01b031681565b6040516001600160a01b03909116815260200161013e565b600054610199906001600160a01b031681565b6101716101d236600461140b565b61075a565b6101716101e5366004611664565b6108d7565b6101716101f836600461140b565b610c68565b600554610150565b61027c61021336600461140b565b600660208190526000918252604090912080546001820154600283015460038401546004850154600586015495909601549395929491936001600160801b0380831694600160801b9384900482169481831694918290048316938184169392909104821691168a565b604080519a8b5260208b0199909952978901969096526001600160801b039485166060890152928416608088015290831660a0870152821660c0860152811660e0850152908116610100840152166101208201526101400161013e565b61015060025481565b6000546001600160a01b031633146103415760405162461bcd60e51b815260206004820152601760248201527f43616c6c6572206973206e6f7420746865206f776e657200000000000000000060448201526064015b60405180910390fd5b60408051610140810182528b815260208082019b8c528183019a8b526001600160801b03998a1660608301908152988a1660808301908152978a1660a08301908152968a1660c08301908152958a1660e08301908152948a166101008301908152938a16610120830190815260009d8e5260069182905292909c2090518155995160018b0155975160028a015594519351938616600160801b94871685021760038901559151905190851690851683021760048701555191519183169183160217600584015590519190920180546fffffffffffffffffffffffffffffffff191691909216179055565b600082815260046020526040902060028101546001600160a01b031633146104a35760405162461bcd60e51b815260206004820152602560248201527f4f6e6c7920746865206f70706f6e656e742063616e20616363657074207468656044820152642067616d6560d81b6064820152608401610338565b6003810154600154604051636eb1769f60e11b81523360048201523060248201526001600160a01b039091169063dd62ed3e90604401602060405180830381865afa1580156104f6573d6000803e3d6000fd5b505050506040513d601f19601f8201168201806040525081019061051a91906116c9565b10156105685760405162461bcd60e51b815260206004820181905260248201527f496e73756666696369656e7420616c6c6f77616e636520666f722077616765726044820152606401610338565b6000600982015460ff16600381111561058357610583611424565b146105c25760405162461bcd60e51b815260206004820152600f60248201526e496e636f727265637420737461746560881b6044820152606401610338565b60005b825181101561065357600660008483815181106105e4576105e46116e2565b60200260200101518152602001908152602001600020600001546000036106415760405162461bcd60e51b8152602060048201526011602482015270125b9d985b1a59081c1b185e595c881a59607a1b6044820152606401610338565b8061064b8161170e565b9150506105c5565b5060015460038201546040516323b872dd60e01b81526001600160a01b03909216916323b872dd9161068b9133913091600401611727565b6020604051808303816000875af11580156106aa573d6000803e3d6000fd5b505050506040513d601f19601f820116820180604052508101906106ce919061174b565b5081516106e4906005830190602085019061136b565b50436008820181905560098201805460ff1916600190811790915582015460038301546040805187815260208101929092528101929092526001600160a01b03169033907f3f9bd1ba680334360f5cfe7c55feb3bb67931ebd35c2020b389a5a52a9cc1eb49060600160405180910390a3505050565b600081815260046020526040902060028101546001600160a01b031633146107d55760405162461bcd60e51b815260206004820152602860248201527f4f6e6c7920746865206f70706f6e656e742063616e20636c61696d207468652060448201526774696d656c6f636b60c01b6064820152608401610338565b60025481600801546107e79190611774565b43116108655760405162461bcd60e51b815260206004820152604160248201527f4f70706f6e656e742063616e20636c61696d2074696d656c6f636b206f6e6c7960448201527f2061667465722074696d656c6f636b426c6f636b7320686176652070617373656064820152601960fa1b608482015260a401610338565b60098101805460ff19166003179055600281015461088d9082906001600160a01b0316610de6565b60018101546040518381526001600160a01b039091169033907fb6f60e952021d7bcf89b0cc9d3fac667423e6df8dba9bfeedca45c5b8c166adf9060200160405180910390a35050565b600154604051636eb1769f60e11b815233600482015230602482015283916001600160a01b03169063dd62ed3e90604401602060405180830381865afa158015610925573d6000803e3d6000fd5b505050506040513d601f19601f8201168201806040525081019061094991906116c9565b10156109975760405162461bcd60e51b815260206004820181905260248201527f496e73756666696369656e7420616c6c6f77616e636520666f722077616765726044820152606401610338565b60005b8151811015610a2857600660008383815181106109b9576109b96116e2565b6020026020010151815260200190815260200160002060000154600003610a165760405162461bcd60e51b8152602060048201526011602482015270125b9d985b1a59081c1b185e595c881a59607a1b6044820152606401610338565b80610a208161170e565b91505061099a565b506001546040516323b872dd60e01b81526001600160a01b03909116906323b872dd90610a5d90339030908790600401611727565b6020604051808303816000875af1158015610a7c573d6000803e3d6000fd5b505050506040513d601f19601f82011682018060405250810190610aa0919061174b565b506000600560008154610ab29061170e565b918290555060408051610120810182528281523360208083019182526001600160a01b03898116848601908152606085018a81528651600080825281860189526080880191825288518181528087018a5260a08901528851808a018a5281815280870182905260c08901524360e0890152610100880181905289815260048087529890208751815595516001870180549186166001600160a01b03199283161790559251600287018054919095169316929092179092559051600384015551805195965092949193610b8a939085019291019061136b565b5060a08201518051610ba691600584019160209091019061136b565b5060c08201518051600683015560200151600782015560e0820151600882015561010082015160098201805460ff19166001836003811115610bea57610bea611424565b0217905550505060008181526003602090815260409091208351610c109285019061136b565b50604080518281526020810185905243918101919091526001600160a01b0385169033907f02c4c4ed29b388428cf1564d10b179c4153a007fb74269c8cc4681465146f50a906060015b60405180910390a350505050565b600081815260046020526040902060018101546001600160a01b03163314610ce55760405162461bcd60e51b815260206004820152602a60248201527f4f6e6c7920746865206368616c6c656e6765722063616e2072657665616c20746044820152696865206f7574636f6d6560b01b6064820152608401610338565b6001600982015460ff166003811115610d0057610d00611424565b14610d3f5760405162461bcd60e51b815260206004820152600f60248201526e496e636f727265637420737461746560881b6044820152606401610338565b60008281526003602052604090208054610d5d9160048401916113b6565b506000610d6982611071565b805160068401556020810151600784015560098301805460ff1916600217905590506000610d97838361131a565b9050610da38382610de6565b60028301546040518581526001600160a01b039091169033907f242f4c122901edd03165283a5957c7f0445c5227fdaebe5fc500f2c62c61ae0990602001610c5a565b6001600160a01b038116610f9457600180549083015460038401546040516323b872dd60e01b81526001600160a01b03938416936323b872dd93610e339330939290911691600401611727565b6020604051808303816000875af1158015610e52573d6000803e3d6000fd5b505050506040513d601f19601f82011682018060405250810190610e76919061174b565b610ec25760405162461bcd60e51b815260206004820152601d60248201527f5472616e7366657220746f206368616c6c656e676572206661696c65640000006044820152606401610338565b600154600283015460038401546040516323b872dd60e01b81526001600160a01b03938416936323b872dd93610f019330939290911691600401611727565b6020604051808303816000875af1158015610f20573d6000803e3d6000fd5b505050506040513d601f19601f82011682018060405250810190610f44919061174b565b610f905760405162461bcd60e51b815260206004820152601b60248201527f5472616e7366657220746f206f70706f6e656e74206661696c656400000000006044820152606401610338565b5050565b600082600301546002610fa79190611787565b60015460405163a9059cbb60e01b81526001600160a01b0385811660048301526024820184905292935091169063a9059cbb906044016020604051808303816000875af1158015610ffc573d6000803e3d6000fd5b505050506040513d601f19601f82011682018060405250810190611020919061174b565b61106c5760405162461bcd60e51b815260206004820152601960248201527f5472616e7366657220746f2077696e6e6572206661696c6564000000000000006044820152606401610338565b505050565b6040805180820190915260008082526020820152604080518082019091526000808252602082018190526110a660014361179e565b40905060015b6004850154811015611311576000600660008760040184815481106110d3576110d36116e2565b6000918252602080832090910154835282810193909352604091820181208251610140810184528154815260018201549481019490945260028101549284019290925260038201546001600160801b038082166060860152600160801b918290048116608086015260048085015480831660a0880152839004821660c087015260058086015480841660e08901529390930482166101008701526006948501549091166101208601528a0154939450909283918a019061119490879061179e565b815481106111a4576111a46116e2565b6000918252602080832090910154835282810193909352604091820181208251610140810184528154815260018201549481019490945260028101549284019290925260038201546001600160801b038082166060860152600160801b9182900481166080860152600484015480821660a080880182905291849004831660c0880152600586015480841660e089015293909304821661010087015260069094015416610120850152918501519293509161125f91906117b1565b6001600160801b03169050600061127682876117d8565b9050808460a001516001600160801b031610156112c45782608001516001600160801b031684606001516001600160801b031611156112bf578651876112bb8261170e565b9052505b6112fa565b83608001516001600160801b031683606001516001600160801b031611156112fa57602087018051906112f68261170e565b9052505b5050505080806113099061170e565b9150506110ac565b50909392505050565b6000816020015182600001511115611340575060018201546001600160a01b0316611365565b602082015182511015611361575060028201546001600160a01b0316611365565b5060005b92915050565b8280548282559060005260206000209081019282156113a6579160200282015b828111156113a657825182559160200191906001019061138b565b506113b29291506113f6565b5090565b8280548282559060005260206000209081019282156113a65760005260206000209182015b828111156113a65782548255916001019190600101906113db565b5b808211156113b257600081556001016113f7565b60006020828403121561141d57600080fd5b5035919050565b634e487b7160e01b600052602160045260246000fd5b8781526001600160a01b038781166020808401919091529087166040830152606082018690528451608083015284015160a082015260c0810183905261010081016004831061149957634e487b7160e01b600052602160045260246000fd5b8260e083015298975050505050505050565b80356001600160801b03811681146114c257600080fd5b919050565b6000806000806000806000806000806101408b8d0312156114e757600080fd5b8a35995060208b0135985060408b0135975061150560608c016114ab565b965061151360808c016114ab565b955061152160a08c016114ab565b945061152f60c08c016114ab565b935061153d60e08c016114ab565b925061154c6101008c016114ab565b915061155b6101208c016114ab565b90509295989b9194979a5092959850565b634e487b7160e01b600052604160045260246000fd5b600082601f83011261159357600080fd5b8135602067ffffffffffffffff808311156115b0576115b061156c565b8260051b604051601f19603f830116810181811084821117156115d5576115d561156c565b6040529384528581018301938381019250878511156115f357600080fd5b83870191505b84821015611612578135835291830191908301906115f9565b979650505050505050565b6000806040838503121561163057600080fd5b82359150602083013567ffffffffffffffff81111561164e57600080fd5b61165a85828601611582565b9150509250929050565b60008060006060848603121561167957600080fd5b83356001600160a01b038116811461169057600080fd5b925060208401359150604084013567ffffffffffffffff8111156116b357600080fd5b6116bf86828701611582565b9150509250925092565b6000602082840312156116db57600080fd5b5051919050565b634e487b7160e01b600052603260045260246000fd5b634e487b7160e01b600052601160045260246000fd5b600060018201611720576117206116f8565b5060010190565b6001600160a01b039384168152919092166020820152604081019190915260600190565b60006020828403121561175d57600080fd5b8151801515811461176d57600080fd5b9392505050565b80820180821115611365576113656116f8565b8082028115828204841417611365576113656116f8565b81810381811115611365576113656116f8565b6001600160801b038181168382160190808211156117d1576117d16116f8565b5092915050565b6000826117f557634e487b7160e01b600052601260045260246000fd5b50069056fea26469706673582212205e4fab4f239ed7e45133d60d4bc333a288687e51d0d440e6f9f279376184d80f64736f6c63430008110033",
  "linkReferences": {},
  "deployedLinkReferences": {}
}