{
  "address": "0xc314278217Ae8D99D95BdAb3432e174A1a483Ed1",
  "abi": [
    {
      "inputs": [
        {
          "internalType": "contract IERC20",
          "name": "_footballCoin",
          "type": "address"
        },
        {
          "internalType": "uint256",
          "name": "_timelockBlocks",
          "type": "uint256"
        }
      ],
      "stateMutability": "nonpayable",
      "type": "constructor"
    },
    {
      "anonymous": false,
      "inputs": [
        {
          "indexed": false,
          "internalType": "uint256",
          "name": "gameId",
          "type": "uint256"
        },
        {
          "indexed": true,
          "internalType": "address",
          "name": "opponent",
          "type": "address"
        },
        {
          "indexed": false,
          "internalType": "uint256",
          "name": "wagerAmount",
          "type": "uint256"
        },
        {
          "indexed": false,
          "internalType": "uint256",
          "name": "blockNumber",
          "type": "uint256"
        }
      ],
      "name": "GameAccepted",
      "type": "event"
    },
    {
      "anonymous": false,
      "inputs": [
        {
          "indexed": false,
          "internalType": "uint256",
          "name": "gameId",
          "type": "uint256"
        }
      ],
      "name": "GameFinished",
      "type": "event"
    },
    {
      "anonymous": false,
      "inputs": [
        {
          "indexed": false,
          "internalType": "uint256",
          "name": "gameId",
          "type": "uint256"
        }
      ],
      "name": "GameFinishedByTimelock",
      "type": "event"
    },
    {
      "anonymous": false,
      "inputs": [
        {
          "indexed": false,
          "internalType": "uint256",
          "name": "gameId",
          "type": "uint256"
        },
        {
          "indexed": true,
          "internalType": "address",
          "name": "challenger",
          "type": "address"
        },
        {
          "indexed": true,
          "internalType": "address",
          "name": "opponent",
          "type": "address"
        },
        {
          "indexed": false,
          "internalType": "uint256",
          "name": "wagerAmount",
          "type": "uint256"
        },
        {
          "indexed": false,
          "internalType": "uint256",
          "name": "blockNumber",
          "type": "uint256"
        }
      ],
      "name": "GameProposed",
      "type": "event"
    },
    {
      "inputs": [
        {
          "internalType": "uint256",
          "name": "gameId",
          "type": "uint256"
        },
        {
          "internalType": "uint256[]",
          "name": "formation",
          "type": "uint256[]"
        }
      ],
      "name": "acceptGame",
      "outputs": [],
      "stateMutability": "nonpayable",
      "type": "function"
    },
    {
      "inputs": [
        {
          "internalType": "uint256",
          "name": "playerId",
          "type": "uint256"
        },
        {
          "internalType": "uint256",
          "name": "teamId",
          "type": "uint256"
        },
        {
          "internalType": "uint256",
          "name": "position",
          "type": "uint256"
        },
        {
          "internalType": "uint128",
          "name": "attack",
          "type": "uint128"
        },
        {
          "internalType": "uint128",
          "name": "defense",
          "type": "uint128"
        },
        {
          "internalType": "uint128",
          "name": "speed",
          "type": "uint128"
        },
        {
          "internalType": "uint128",
          "name": "power",
          "type": "uint128"
        },
        {
          "internalType": "uint128",
          "name": "stamina",
          "type": "uint128"
        },
        {
          "internalType": "uint128",
          "name": "technique",
          "type": "uint128"
        },
        {
          "internalType": "uint128",
          "name": "goalkeeping",
          "type": "uint128"
        }
      ],
      "name": "addPlayer",
      "outputs": [],
      "stateMutability": "nonpayable",
      "type": "function"
    },
    {
      "inputs": [
        {
          "internalType": "uint256",
          "name": "numberOfValues",
          "type": "uint256"
        },
        {
          "internalType": "bytes32",
          "name": "prevRandao",
          "type": "bytes32"
        }
      ],
      "name": "extractRandomValues",
      "outputs": [
        {
          "internalType": "uint256[]",
          "name": "",
          "type": "uint256[]"
        }
      ],
      "stateMutability": "pure",
      "type": "function"
    },
    {
      "inputs": [],
      "name": "footballCoin",
      "outputs": [
        {
          "internalType": "contract IERC20",
          "name": "",
          "type": "address"
        }
      ],
      "stateMutability": "view",
      "type": "function"
    },
    {
      "inputs": [],
      "name": "gameCount",
      "outputs": [
        {
          "internalType": "uint256",
          "name": "",
          "type": "uint256"
        }
      ],
      "stateMutability": "view",
      "type": "function"
    },
    {
      "inputs": [
        {
          "internalType": "uint256",
          "name": "",
          "type": "uint256"
        }
      ],
      "name": "gameResults",
      "outputs": [
        {
          "internalType": "uint256",
          "name": "goalsHomeTeam",
          "type": "uint256"
        },
        {
          "internalType": "uint256",
          "name": "goalsAwayTeam",
          "type": "uint256"
        }
      ],
      "stateMutability": "view",
      "type": "function"
    },
    {
      "inputs": [
        {
          "internalType": "uint256",
          "name": "",
          "type": "uint256"
        }
      ],
      "name": "games",
      "outputs": [
        {
          "internalType": "address",
          "name": "challenger",
          "type": "address"
        },
        {
          "internalType": "address",
          "name": "opponent",
          "type": "address"
        },
        {
          "internalType": "uint256",
          "name": "wagerAmount",
          "type": "uint256"
        },
        {
          "internalType": "bool",
          "name": "isFinished",
          "type": "bool"
        },
        {
          "components": [
            {
              "internalType": "uint256",
              "name": "goalsHomeTeam",
              "type": "uint256"
            },
            {
              "internalType": "uint256",
              "name": "goalsAwayTeam",
              "type": "uint256"
            }
          ],
          "internalType": "struct FootballGame.GameResult",
          "name": "result",
          "type": "tuple"
        },
        {
          "internalType": "uint256",
          "name": "blockNumber",
          "type": "uint256"
        }
      ],
      "stateMutability": "view",
      "type": "function"
    },
    {
      "inputs": [],
      "name": "getGameCount",
      "outputs": [
        {
          "internalType": "uint256",
          "name": "",
          "type": "uint256"
        }
      ],
      "stateMutability": "view",
      "type": "function"
    },
    {
      "inputs": [
        {
          "internalType": "uint256",
          "name": "gameId",
          "type": "uint256"
        }
      ],
      "name": "getGameResult",
      "outputs": [
        {
          "components": [
            {
              "internalType": "uint256",
              "name": "goalsHomeTeam",
              "type": "uint256"
            },
            {
              "internalType": "uint256",
              "name": "goalsAwayTeam",
              "type": "uint256"
            }
          ],
          "internalType": "struct FootballGame.GameResult",
          "name": "",
          "type": "tuple"
        }
      ],
      "stateMutability": "view",
      "type": "function"
    },
    {
      "inputs": [
        {
          "internalType": "uint256",
          "name": "gameId",
          "type": "uint256"
        }
      ],
      "name": "opponentClaimTimelock",
      "outputs": [],
      "stateMutability": "nonpayable",
      "type": "function"
    },
    {
      "inputs": [],
      "name": "owner",
      "outputs": [
        {
          "internalType": "address",
          "name": "",
          "type": "address"
        }
      ],
      "stateMutability": "view",
      "type": "function"
    },
    {
      "inputs": [
        {
          "internalType": "uint256",
          "name": "",
          "type": "uint256"
        }
      ],
      "name": "players",
      "outputs": [
        {
          "internalType": "uint256",
          "name": "player_id",
          "type": "uint256"
        },
        {
          "internalType": "uint256",
          "name": "team_id",
          "type": "uint256"
        },
        {
          "internalType": "uint256",
          "name": "position",
          "type": "uint256"
        },
        {
          "internalType": "uint128",
          "name": "attack",
          "type": "uint128"
        },
        {
          "internalType": "uint128",
          "name": "defense",
          "type": "uint128"
        },
        {
          "internalType": "uint128",
          "name": "speed",
          "type": "uint128"
        },
        {
          "internalType": "uint128",
          "name": "power",
          "type": "uint128"
        },
        {
          "internalType": "uint128",
          "name": "stamina",
          "type": "uint128"
        },
        {
          "internalType": "uint128",
          "name": "technique",
          "type": "uint128"
        },
        {
          "internalType": "uint128",
          "name": "goalkeeping",
          "type": "uint128"
        }
      ],
      "stateMutability": "view",
      "type": "function"
    },
    {
      "inputs": [
        {
          "internalType": "address",
          "name": "opponent",
          "type": "address"
        },
        {
          "internalType": "uint256",
          "name": "wagerAmount",
          "type": "uint256"
        },
        {
          "internalType": "uint256[]",
          "name": "formation",
          "type": "uint256[]"
        }
      ],
      "name": "proposeGame",
      "outputs": [],
      "stateMutability": "nonpayable",
      "type": "function"
    },
    {
      "inputs": [
        {
          "internalType": "uint256",
          "name": "gameId",
          "type": "uint256"
        }
      ],
      "name": "revealOutcome",
      "outputs": [],
      "stateMutability": "nonpayable",
      "type": "function"
    },
    {
      "inputs": [],
      "name": "timelockBlocks",
      "outputs": [
        {
          "internalType": "uint256",
          "name": "",
          "type": "uint256"
        }
      ],
      "stateMutability": "view",
      "type": "function"
    }
  ],
  "transactionHash": "0x9649d06791f7d2a2b6a04c4ebead5eae25cbc99e7462a36f7edf35af7325fabb",
  "args": [
    "0xc314278217Ae8D99D95BdAb3432e174A1a483Ed1",
    100
  ],
  "numDeployments": 2,
  "solcInputHash": "194a32c4c2d1c4bbe9474f677b0c342d",
  "bytecode": "0x608060405234801561001057600080fd5b50604051611ae6380380611ae683398101604081905261002f91610066565b60008054336001600160a01b031991821617909155600180549091166001600160a01b0393909316929092179091556002556100a0565b6000806040838503121561007957600080fd5b82516001600160a01b038116811461009057600080fd5b6020939093015192949293505050565b611a37806100af6000396000f3fe608060405234801561001057600080fd5b50600436106100f55760003560e01c806394b1e59511610097578063ed2df26d11610066578063ed2df26d1461025d578063f71d96cb146102b6578063fda0f9a214610386578063fdba1b7c1461038f57600080fd5b806394b1e5951461021c578063cd86f8101461022f578063cfb9479814610242578063e87c0ee61461025557600080fd5b806352bab1c9116100d357806352bab1c9146101ab57806359c892a9146101cb57806364407bad146101de5780638da5cb5b1461020957600080fd5b8063117a5b90146100fa5780634d1975b41461017f578063506d7e2d14610196575b600080fd5b6101646101083660046115d5565b60046020908152600091825260409182902080546001820154600283015460058401548651808801909752600685015487526007850154958701959095526008909301546001600160a01b0392831695919092169360ff169186565b604051610176969594939291906115ee565b60405180910390f35b61018860065481565b604051908152602001610176565b6101a96101a4366004611659565b6103cb565b005b6101be6101b93660046116fe565b61051b565b6040516101769190611720565b6101a96101d9366004611815565b610624565b6001546101f1906001600160a01b031681565b6040516001600160a01b039091168152602001610176565b6000546101f1906001600160a01b031681565b6101a961022a3660046115d5565b6108e1565b6101a961023d36600461185c565b610a4c565b6101a96102503660046115d5565b610e05565b600654610188565b6102a961026b3660046115d5565b604080518082019091526000808252602082015250600090815260056020908152604091829020825180840190935280548352600101549082015290565b60405161017691906118c1565b6103296102c43660046115d5565b60076020526000908152604090208054600182015460028301546003840154600485015460058601546006909601549495939492936001600160801b0380841694600160801b948590048216948483169481900483169380841693919004811691168a565b604080519a8b5260208b0199909952978901969096526001600160801b039485166060890152928416608088015290831660a0870152821660c0860152811660e08501529081166101008401521661012082015261014001610176565b61018860025481565b6103b661039d3660046115d5565b6005602052600090815260409020805460019091015482565b60408051928352602083019190915201610176565b6000546001600160a01b0316331461042a5760405162461bcd60e51b815260206004820152601760248201527f43616c6c6572206973206e6f7420746865206f776e657200000000000000000060448201526064015b60405180910390fd5b60408051610140810182528b815260208082019b8c528183019a8b526001600160801b03998a1660608301908152988a1660808301908152978a1660a08301908152968a1660c08301908152958a1660e08301908152948a166101008301908152938a16610120830190815260009d8e52600790915291909b209a518b55985160018b0155965160028a015593519251928516600160801b938616840217600389015590519051908416908416820217600487015590519251928216928216029190911760058401559051600690920180546fffffffffffffffffffffffffffffffff191692909116919091179055565b60606000831161057d5760405162461bcd60e51b815260206004820152602760248201527f4e756d626572206f662076616c756573206d75737420626520677265617465726044820152660207468616e20360cc1b6064820152608401610421565b60008367ffffffffffffffff81111561059857610598611764565b6040519080825280602002602001820160405280156105c1578160200160208202803683370190505b5090508260005b85811015610618576105db6064836118ee565b8382815181106105ed576105ed611902565b60209081029190910101526106046101008361192e565b91508061061081611942565b9150506105c8565b50909150505b92915050565b600082815260046020526040902060018101546001600160a01b0316331461069c5760405162461bcd60e51b815260206004820152602560248201527f4f6e6c7920746865206f70706f6e656e742063616e20616363657074207468656044820152642067616d6560d81b6064820152608401610421565b6002810154600154604051636eb1769f60e11b81523360048201523060248201526001600160a01b039091169063dd62ed3e90604401602060405180830381865afa1580156106ef573d6000803e3d6000fd5b505050506040513d601f19601f82011682018060405250810190610713919061195b565b10156107615760405162461bcd60e51b815260206004820181905260248201527f496e73756666696369656e7420616c6c6f77616e636520666f722077616765726044820152606401610421565b60005b82518110156107f2576007600084838151811061078357610783611902565b60200260200101518152602001908152602001600020600001546000036107e05760405162461bcd60e51b8152602060048201526011602482015270125b9d985b1a59081c1b185e595c881a59607a1b6044820152606401610421565b806107ea81611942565b915050610764565b5060015460028201546040516323b872dd60e01b815233600482015230602482015260448101919091526001600160a01b03909116906323b872dd906064016020604051808303816000875af1158015610850573d6000803e3d6000fd5b505050506040513d601f19601f820116820180604052508101906108749190611974565b50815161088a9060048301906020850190611535565b504360088201819055600282015460408051868152602081019290925281019190915233907f3e4861c2ee824ef513d4f257f8e91ed935561ba29a3a66edaf6106956b1a33409060600160405180910390a2505050565b600081815260046020526040902060018101546001600160a01b0316331461095c5760405162461bcd60e51b815260206004820152602860248201527f4f6e6c7920746865206f70706f6e656e742063616e20636c61696d207468652060448201526774696d656c6f636b60c01b6064820152608401610421565b600254816008015461096e919061199d565b43116109ec5760405162461bcd60e51b815260206004820152604160248201527f4f70706f6e656e742063616e20636c61696d2074696d656c6f636b206f6e6c7960448201527f2061667465722074696d656c6f636b426c6f636b7320686176652070617373656064820152601960fa1b608482015260a401610421565b60058101805460ff19166001908117909155810154610a159082906001600160a01b0316610f7a565b6040518281527f3940a261f19a11e745a180d85bc64bb8a1360ea9d291fff0bce0d67cc4261f949060200160405180910390a15050565b600154604051636eb1769f60e11b815233600482015230602482015283916001600160a01b03169063dd62ed3e90604401602060405180830381865afa158015610a9a573d6000803e3d6000fd5b505050506040513d601f19601f82011682018060405250810190610abe919061195b565b1015610b0c5760405162461bcd60e51b815260206004820181905260248201527f496e73756666696369656e7420616c6c6f77616e636520666f722077616765726044820152606401610421565b60005b8151811015610b9d5760076000838381518110610b2e57610b2e611902565b6020026020010151815260200190815260200160002060000154600003610b8b5760405162461bcd60e51b8152602060048201526011602482015270125b9d985b1a59081c1b185e595c881a59607a1b6044820152606401610421565b80610b9581611942565b915050610b0f565b506001546040516323b872dd60e01b8152336004820152306024820152604481018490526001600160a01b03909116906323b872dd906064016020604051808303816000875af1158015610bf5573d6000803e3d6000fd5b505050506040513d601f19601f82011682018060405250810190610c199190611974565b506000600660008154610c2b90611942565b918290555060408051610100810182523381526001600160a01b0387166020820152908101859052909150606081016000604051908082528060200260200182016040528015610c85578160200160208202803683370190505b5081526020016000604051908082528060200260200182016040528015610cb6578160200160208202803683370190505b5081526000602080830182905260408051808201825283815280830184905281850152436060948501528583526004825291829020845181546001600160a01b039182166001600160a01b0319918216178355868401516001840180549190931691161790559184015160028301559183015180519192610d3f92600385019290910190611535565b5060808201518051610d5b916004840191602090910190611535565b5060a082015160058201805460ff191691151591909117905560c082015180516006830155602090810151600783015560e090920151600890910155600082815260038252604090208351610db292850190611535565b506040805182815260208101859052438183015290516001600160a01b0386169133917f02c4c4ed29b388428cf1564d10b179c4153a007fb74269c8cc4681465146f50a9181900360600190a350505050565b600081815260046020526040902080546001600160a01b03163314610e7f5760405162461bcd60e51b815260206004820152602a60248201527f4f6e6c7920746865206368616c6c656e6765722063616e2072657665616c20746044820152696865206f7574636f6d6560b01b6064820152608401610421565b600581015460ff1615610ed45760405162461bcd60e51b815260206004820152601c60248201527f5468652067616d6520697320616c72656164792066696e6973686564000000006044820152606401610421565b60008281526003602081905260409091208054610ef49284019190611580565b506000610f0082611200565b600084815260056020818152604083208451815590840151600191820155908501805460ff19169091179055909150610f3983836114e8565b90507f6543ec12c6e53f26532beb5289ef5732dcd77c2e9e9921ae42b695905f5e84c084604051610f6c91815260200190565b60405180910390a150505050565b6001600160a01b038116611123576001548254600284015460405163a9059cbb60e01b81526001600160a01b039283166004820152602481019190915291169063a9059cbb906044016020604051808303816000875af1158015610fe2573d6000803e3d6000fd5b505050506040513d601f19601f820116820180604052508101906110069190611974565b6110525760405162461bcd60e51b815260206004820152601b60248201527f526566756e6420746f206368616c6c656e676572206661696c656400000000006044820152606401610421565b6001805490830154600284015460405163a9059cbb60e01b81526001600160a01b039283166004820152602481019190915291169063a9059cbb906044016020604051808303816000875af11580156110af573d6000803e3d6000fd5b505050506040513d601f19601f820116820180604052508101906110d39190611974565b61111f5760405162461bcd60e51b815260206004820152601960248201527f526566756e6420746f206f70706f6e656e74206661696c6564000000000000006044820152606401610421565b5050565b60008260020154600261113691906119b0565b60015460405163a9059cbb60e01b81526001600160a01b0385811660048301526024820184905292935091169063a9059cbb906044016020604051808303816000875af115801561118b573d6000803e3d6000fd5b505050506040513d601f19601f820116820180604052508101906111af9190611974565b6111fb5760405162461bcd60e51b815260206004820152601960248201527f5472616e7366657220746f2077696e6e6572206661696c6564000000000000006044820152606401610421565b505050565b6040805180820190915260008082526020820152604080518082019091526000808252602082018190526112356001436119c7565b4090506000611245600a8361051b565b905060015b60038601548110156114de5760006007600088600301848154811061127157611271611902565b600091825260208083209091015483528281019390935260409182018120825161014081018452815481526001820154948101949094526002810154928401929092526003808301546001600160801b038082166060870152600160801b918290048116608087015260048086015480831660a0890152839004821660c0880152600586015480831660e08901529290920481166101008701526006909401549093166101208501528a0154929350916007918391908b01906113359087906119c7565b8154811061134557611345611902565b6000918252602080832090910154835282810193909352604091820181208251610140810184528154815260018201549481019490945260028101549284019290925260038201546001600160801b038082166060860152600160801b9182900481166080860152600484015480821660a080880182905291849004831660c0880152600586015480841660e089015293909304821661010087015260069094015416610120850152918501519293509161140091906119da565b6001600160801b03169050600061141782886118ee565b9050808460a001516001600160801b0316111561147b578561143a6001876119c7565b8151811061144a5761144a611902565b602002602001015184606001516001600160801b031611156114765787518861147282611942565b9052505b6114c7565b856114876001876119c7565b8151811061149757611497611902565b602002602001015183606001516001600160801b031611156114c757602088018051906114c382611942565b9052505b5050505080806114d690611942565b91505061124a565b5091949350505050565b600081602001518260000151111561150b575081546001600160a01b031661061e565b60208201518251101561152c575060018201546001600160a01b031661061e565b50600092915050565b828054828255906000526020600020908101928215611570579160200282015b82811115611570578251825591602001919060010190611555565b5061157c9291506115c0565b5090565b8280548282559060005260206000209081019282156115705760005260206000209182015b828111156115705782548255916001019190600101906115a5565b5b8082111561157c57600081556001016115c1565b6000602082840312156115e757600080fd5b5035919050565b6001600160a01b0387811682528616602082015260408101859052831515606082015260e0810161162c608083018580518252602090810151910152565b8260c0830152979650505050505050565b80356001600160801b038116811461165457600080fd5b919050565b6000806000806000806000806000806101408b8d03121561167957600080fd5b8a35995060208b0135985060408b0135975061169760608c0161163d565b96506116a560808c0161163d565b95506116b360a08c0161163d565b94506116c160c08c0161163d565b93506116cf60e08c0161163d565b92506116de6101008c0161163d565b91506116ed6101208c0161163d565b90509295989b9194979a5092959850565b6000806040838503121561171157600080fd5b50508035926020909101359150565b6020808252825182820181905260009190848201906040850190845b818110156117585783518352928401929184019160010161173c565b50909695505050505050565b634e487b7160e01b600052604160045260246000fd5b600082601f83011261178b57600080fd5b8135602067ffffffffffffffff808311156117a8576117a8611764565b8260051b604051601f19603f830116810181811084821117156117cd576117cd611764565b6040529384528581018301938381019250878511156117eb57600080fd5b83870191505b8482101561180a578135835291830191908301906117f1565b979650505050505050565b6000806040838503121561182857600080fd5b82359150602083013567ffffffffffffffff81111561184657600080fd5b6118528582860161177a565b9150509250929050565b60008060006060848603121561187157600080fd5b83356001600160a01b038116811461188857600080fd5b925060208401359150604084013567ffffffffffffffff8111156118ab57600080fd5b6118b78682870161177a565b9150509250925092565b81518152602080830151908201526040810161061e565b634e487b7160e01b600052601260045260246000fd5b6000826118fd576118fd6118d8565b500690565b634e487b7160e01b600052603260045260246000fd5b634e487b7160e01b600052601160045260246000fd5b60008261193d5761193d6118d8565b500490565b60006001820161195457611954611918565b5060010190565b60006020828403121561196d57600080fd5b5051919050565b60006020828403121561198657600080fd5b8151801515811461199657600080fd5b9392505050565b8082018082111561061e5761061e611918565b808202811582820484141761061e5761061e611918565b8181038181111561061e5761061e611918565b6001600160801b038181168382160190808211156119fa576119fa611918565b509291505056fea26469706673582212208c27f28a17c26591e4729a238398e19828a6d7162c2841277a62016189dd844b64736f6c63430008110033",
  "devdoc": {
    "kind": "dev",
    "methods": {},
    "version": 1
  },
  "userdoc": {
    "kind": "user",
    "methods": {},
    "version": 1
  },
  "storageLayout": {
    "storage": [
      {
        "astId": 82,
        "contract": "contracts/FootballGame.sol:FootballGame",
        "label": "owner",
        "offset": 0,
        "slot": "0",
        "type": "t_address"
      },
      {
        "astId": 85,
        "contract": "contracts/FootballGame.sol:FootballGame",
        "label": "footballCoin",
        "offset": 0,
        "slot": "1",
        "type": "t_contract(IERC20)77"
      },
      {
        "astId": 87,
        "contract": "contracts/FootballGame.sol:FootballGame",
        "label": "timelockBlocks",
        "offset": 0,
        "slot": "2",
        "type": "t_uint256"
      },
      {
        "astId": 117,
        "contract": "contracts/FootballGame.sol:FootballGame",
        "label": "challenger_formation",
        "offset": 0,
        "slot": "3",
        "type": "t_mapping(t_uint256,t_array(t_uint256)dyn_storage)"
      },
      {
        "astId": 122,
        "contract": "contracts/FootballGame.sol:FootballGame",
        "label": "games",
        "offset": 0,
        "slot": "4",
        "type": "t_mapping(t_uint256,t_struct(Game)107_storage)"
      },
      {
        "astId": 127,
        "contract": "contracts/FootballGame.sol:FootballGame",
        "label": "gameResults",
        "offset": 0,
        "slot": "5",
        "type": "t_mapping(t_uint256,t_struct(GameResult)112_storage)"
      },
      {
        "astId": 129,
        "contract": "contracts/FootballGame.sol:FootballGame",
        "label": "gameCount",
        "offset": 0,
        "slot": "6",
        "type": "t_uint256"
      },
      {
        "astId": 206,
        "contract": "contracts/FootballGame.sol:FootballGame",
        "label": "players",
        "offset": 0,
        "slot": "7",
        "type": "t_mapping(t_uint256,t_struct(Player)201_storage)"
      }
    ],
    "types": {
      "t_address": {
        "encoding": "inplace",
        "label": "address",
        "numberOfBytes": "20"
      },
      "t_array(t_uint256)dyn_storage": {
        "base": "t_uint256",
        "encoding": "dynamic_array",
        "label": "uint256[]",
        "numberOfBytes": "32"
      },
      "t_bool": {
        "encoding": "inplace",
        "label": "bool",
        "numberOfBytes": "1"
      },
      "t_contract(IERC20)77": {
        "encoding": "inplace",
        "label": "contract IERC20",
        "numberOfBytes": "20"
      },
      "t_mapping(t_uint256,t_array(t_uint256)dyn_storage)": {
        "encoding": "mapping",
        "key": "t_uint256",
        "label": "mapping(uint256 => uint256[])",
        "numberOfBytes": "32",
        "value": "t_array(t_uint256)dyn_storage"
      },
      "t_mapping(t_uint256,t_struct(Game)107_storage)": {
        "encoding": "mapping",
        "key": "t_uint256",
        "label": "mapping(uint256 => struct FootballGame.Game)",
        "numberOfBytes": "32",
        "value": "t_struct(Game)107_storage"
      },
      "t_mapping(t_uint256,t_struct(GameResult)112_storage)": {
        "encoding": "mapping",
        "key": "t_uint256",
        "label": "mapping(uint256 => struct FootballGame.GameResult)",
        "numberOfBytes": "32",
        "value": "t_struct(GameResult)112_storage"
      },
      "t_mapping(t_uint256,t_struct(Player)201_storage)": {
        "encoding": "mapping",
        "key": "t_uint256",
        "label": "mapping(uint256 => struct FootballGame.Player)",
        "numberOfBytes": "32",
        "value": "t_struct(Player)201_storage"
      },
      "t_struct(Game)107_storage": {
        "encoding": "inplace",
        "label": "struct FootballGame.Game",
        "members": [
          {
            "astId": 89,
            "contract": "contracts/FootballGame.sol:FootballGame",
            "label": "challenger",
            "offset": 0,
            "slot": "0",
            "type": "t_address"
          },
          {
            "astId": 91,
            "contract": "contracts/FootballGame.sol:FootballGame",
            "label": "opponent",
            "offset": 0,
            "slot": "1",
            "type": "t_address"
          },
          {
            "astId": 93,
            "contract": "contracts/FootballGame.sol:FootballGame",
            "label": "wagerAmount",
            "offset": 0,
            "slot": "2",
            "type": "t_uint256"
          },
          {
            "astId": 96,
            "contract": "contracts/FootballGame.sol:FootballGame",
            "label": "challengerFormation",
            "offset": 0,
            "slot": "3",
            "type": "t_array(t_uint256)dyn_storage"
          },
          {
            "astId": 99,
            "contract": "contracts/FootballGame.sol:FootballGame",
            "label": "opponentFormation",
            "offset": 0,
            "slot": "4",
            "type": "t_array(t_uint256)dyn_storage"
          },
          {
            "astId": 101,
            "contract": "contracts/FootballGame.sol:FootballGame",
            "label": "isFinished",
            "offset": 0,
            "slot": "5",
            "type": "t_bool"
          },
          {
            "astId": 104,
            "contract": "contracts/FootballGame.sol:FootballGame",
            "label": "result",
            "offset": 0,
            "slot": "6",
            "type": "t_struct(GameResult)112_storage"
          },
          {
            "astId": 106,
            "contract": "contracts/FootballGame.sol:FootballGame",
            "label": "blockNumber",
            "offset": 0,
            "slot": "8",
            "type": "t_uint256"
          }
        ],
        "numberOfBytes": "288"
      },
      "t_struct(GameResult)112_storage": {
        "encoding": "inplace",
        "label": "struct FootballGame.GameResult",
        "members": [
          {
            "astId": 109,
            "contract": "contracts/FootballGame.sol:FootballGame",
            "label": "goalsHomeTeam",
            "offset": 0,
            "slot": "0",
            "type": "t_uint256"
          },
          {
            "astId": 111,
            "contract": "contracts/FootballGame.sol:FootballGame",
            "label": "goalsAwayTeam",
            "offset": 0,
            "slot": "1",
            "type": "t_uint256"
          }
        ],
        "numberOfBytes": "64"
      },
      "t_struct(Player)201_storage": {
        "encoding": "inplace",
        "label": "struct FootballGame.Player",
        "members": [
          {
            "astId": 182,
            "contract": "contracts/FootballGame.sol:FootballGame",
            "label": "player_id",
            "offset": 0,
            "slot": "0",
            "type": "t_uint256"
          },
          {
            "astId": 184,
            "contract": "contracts/FootballGame.sol:FootballGame",
            "label": "team_id",
            "offset": 0,
            "slot": "1",
            "type": "t_uint256"
          },
          {
            "astId": 186,
            "contract": "contracts/FootballGame.sol:FootballGame",
            "label": "position",
            "offset": 0,
            "slot": "2",
            "type": "t_uint256"
          },
          {
            "astId": 188,
            "contract": "contracts/FootballGame.sol:FootballGame",
            "label": "attack",
            "offset": 0,
            "slot": "3",
            "type": "t_uint128"
          },
          {
            "astId": 190,
            "contract": "contracts/FootballGame.sol:FootballGame",
            "label": "defense",
            "offset": 16,
            "slot": "3",
            "type": "t_uint128"
          },
          {
            "astId": 192,
            "contract": "contracts/FootballGame.sol:FootballGame",
            "label": "speed",
            "offset": 0,
            "slot": "4",
            "type": "t_uint128"
          },
          {
            "astId": 194,
            "contract": "contracts/FootballGame.sol:FootballGame",
            "label": "power",
            "offset": 16,
            "slot": "4",
            "type": "t_uint128"
          },
          {
            "astId": 196,
            "contract": "contracts/FootballGame.sol:FootballGame",
            "label": "stamina",
            "offset": 0,
            "slot": "5",
            "type": "t_uint128"
          },
          {
            "astId": 198,
            "contract": "contracts/FootballGame.sol:FootballGame",
            "label": "technique",
            "offset": 16,
            "slot": "5",
            "type": "t_uint128"
          },
          {
            "astId": 200,
            "contract": "contracts/FootballGame.sol:FootballGame",
            "label": "goalkeeping",
            "offset": 0,
            "slot": "6",
            "type": "t_uint128"
          }
        ],
        "numberOfBytes": "224"
      },
      "t_uint128": {
        "encoding": "inplace",
        "label": "uint128",
        "numberOfBytes": "16"
      },
      "t_uint256": {
        "encoding": "inplace",
        "label": "uint256",
        "numberOfBytes": "32"
      }
    }
  }
}